{
  "_format": "hh-sol-artifact-1",
  "contractName": "DSQStaking",
  "sourceName": "contracts/DSQStaking.sol",
  "abi": [
    {
      "inputs": [
        {
          "internalType": "address",
          "name": "_owner",
          "type": "address"
        },
        {
          "internalType": "address",
          "name": "_rewardsDistribution",
          "type": "address"
        },
        {
          "internalType": "address",
          "name": "_rewardsToken",
          "type": "address"
        },
        {
          "internalType": "address",
          "name": "_stakingToken",
          "type": "address"
        }
      ],
      "stateMutability": "nonpayable",
      "type": "constructor"
    },
    {
      "anonymous": false,
      "inputs": [
        {
          "indexed": false,
          "internalType": "address",
          "name": "oldRouter",
          "type": "address"
        },
        {
          "indexed": false,
          "internalType": "address",
          "name": "newRouter",
          "type": "address"
        }
      ],
      "name": "NewRouter",
      "type": "event"
    },
    {
      "anonymous": false,
      "inputs": [
        {
          "indexed": true,
          "internalType": "address",
          "name": "previousOwner",
          "type": "address"
        },
        {
          "indexed": true,
          "internalType": "address",
          "name": "newOwner",
          "type": "address"
        }
      ],
      "name": "OwnershipTransferred",
      "type": "event"
    },
    {
      "anonymous": false,
      "inputs": [
        {
          "indexed": false,
          "internalType": "address",
          "name": "token",
          "type": "address"
        },
        {
          "indexed": false,
          "internalType": "uint256",
          "name": "amount",
          "type": "uint256"
        }
      ],
      "name": "Recovered",
      "type": "event"
    },
    {
      "anonymous": false,
      "inputs": [
        {
          "indexed": false,
          "internalType": "uint256",
          "name": "reward",
          "type": "uint256"
        }
      ],
      "name": "RewardAdded",
      "type": "event"
    },
    {
      "anonymous": false,
      "inputs": [
        {
          "indexed": true,
          "internalType": "address",
          "name": "user",
          "type": "address"
        },
        {
          "indexed": true,
          "internalType": "address",
          "name": "recipient",
          "type": "address"
        },
        {
          "indexed": false,
          "internalType": "uint256",
          "name": "reward",
          "type": "uint256"
        }
      ],
      "name": "RewardPaid",
      "type": "event"
    },
    {
      "anonymous": false,
      "inputs": [
        {
          "indexed": false,
          "internalType": "uint256",
          "name": "newDuration",
          "type": "uint256"
        }
      ],
      "name": "RewardsDurationUpdated",
      "type": "event"
    },
    {
      "anonymous": false,
      "inputs": [
        {
          "indexed": true,
          "internalType": "address",
          "name": "user",
          "type": "address"
        },
        {
          "indexed": false,
          "internalType": "uint256",
          "name": "amount",
          "type": "uint256"
        }
      ],
      "name": "Staked",
      "type": "event"
    },
    {
      "anonymous": false,
      "inputs": [
        {
          "indexed": true,
          "internalType": "address",
          "name": "user",
          "type": "address"
        },
        {
          "indexed": false,
          "internalType": "uint256",
          "name": "amount",
          "type": "uint256"
        }
      ],
      "name": "Withdrawn",
      "type": "event"
    },
    {
      "inputs": [
        {
          "internalType": "address",
          "name": "account",
          "type": "address"
        }
      ],
      "name": "balanceOf",
      "outputs": [
        {
          "internalType": "uint256",
          "name": "",
          "type": "uint256"
        }
      ],
      "stateMutability": "view",
      "type": "function"
    },
    {
      "inputs": [
        {
          "internalType": "address",
          "name": "account",
          "type": "address"
        }
      ],
      "name": "earned",
      "outputs": [
        {
          "internalType": "uint256",
          "name": "",
          "type": "uint256"
        }
      ],
      "stateMutability": "view",
      "type": "function"
    },
    {
      "inputs": [
        {
          "internalType": "address",
          "name": "account",
          "type": "address"
        }
      ],
      "name": "exit",
      "outputs": [],
      "stateMutability": "nonpayable",
      "type": "function"
    },
    {
      "inputs": [
        {
          "internalType": "address",
          "name": "account",
          "type": "address"
        },
        {
          "internalType": "address",
          "name": "recipient",
          "type": "address"
        }
      ],
      "name": "getReward",
      "outputs": [
        {
          "internalType": "uint256",
          "name": "",
          "type": "uint256"
        }
      ],
      "stateMutability": "nonpayable",
      "type": "function"
    },
    {
      "inputs": [],
      "name": "getRewardForDuration",
      "outputs": [
        {
          "internalType": "uint256",
          "name": "",
          "type": "uint256"
        }
      ],
      "stateMutability": "view",
      "type": "function"
    },
    {
      "inputs": [],
      "name": "lastTimeRewardApplicable",
      "outputs": [
        {
          "internalType": "uint256",
          "name": "",
          "type": "uint256"
        }
      ],
      "stateMutability": "view",
      "type": "function"
    },
    {
      "inputs": [],
      "name": "lastUpdateTime",
      "outputs": [
        {
          "internalType": "uint256",
          "name": "",
          "type": "uint256"
        }
      ],
      "stateMutability": "view",
      "type": "function"
    },
    {
      "inputs": [
        {
          "internalType": "uint256",
          "name": "reward",
          "type": "uint256"
        }
      ],
      "name": "notifyRewardAmount",
      "outputs": [],
      "stateMutability": "nonpayable",
      "type": "function"
    },
    {
      "inputs": [],
      "name": "owner",
      "outputs": [
        {
          "internalType": "address",
          "name": "",
          "type": "address"
        }
      ],
      "stateMutability": "view",
      "type": "function"
    },
    {
      "inputs": [],
      "name": "periodFinish",
      "outputs": [
        {
          "internalType": "uint256",
          "name": "",
          "type": "uint256"
        }
      ],
      "stateMutability": "view",
      "type": "function"
    },
    {
      "inputs": [
        {
          "internalType": "address",
          "name": "tokenAddress",
          "type": "address"
        },
        {
          "internalType": "uint256",
          "name": "tokenAmount",
          "type": "uint256"
        }
      ],
      "name": "recoverERC20",
      "outputs": [],
      "stateMutability": "nonpayable",
      "type": "function"
    },
    {
      "inputs": [],
      "name": "renounceOwnership",
      "outputs": [],
      "stateMutability": "nonpayable",
      "type": "function"
    },
    {
      "inputs": [],
      "name": "rewardPerToken",
      "outputs": [
        {
          "internalType": "uint256",
          "name": "",
          "type": "uint256"
        }
      ],
      "stateMutability": "view",
      "type": "function"
    },
    {
      "inputs": [],
      "name": "rewardPerTokenStored",
      "outputs": [
        {
          "internalType": "uint256",
          "name": "",
          "type": "uint256"
        }
      ],
      "stateMutability": "view",
      "type": "function"
    },
    {
      "inputs": [],
      "name": "rewardRate",
      "outputs": [
        {
          "internalType": "uint256",
          "name": "",
          "type": "uint256"
        }
      ],
      "stateMutability": "view",
      "type": "function"
    },
    {
      "inputs": [
        {
          "internalType": "address",
          "name": "",
          "type": "address"
        }
      ],
      "name": "rewards",
      "outputs": [
        {
          "internalType": "uint256",
          "name": "",
          "type": "uint256"
        }
      ],
      "stateMutability": "view",
      "type": "function"
    },
    {
      "inputs": [],
      "name": "rewardsDistribution",
      "outputs": [
        {
          "internalType": "address",
          "name": "",
          "type": "address"
        }
      ],
      "stateMutability": "view",
      "type": "function"
    },
    {
      "inputs": [],
      "name": "rewardsDuration",
      "outputs": [
        {
          "internalType": "uint256",
          "name": "",
          "type": "uint256"
        }
      ],
      "stateMutability": "view",
      "type": "function"
    },
    {
      "inputs": [],
      "name": "rewardsToken",
      "outputs": [
        {
          "internalType": "contract IERC20",
          "name": "",
          "type": "address"
        }
      ],
      "stateMutability": "view",
      "type": "function"
    },
    {
      "inputs": [],
      "name": "router",
      "outputs": [
        {
          "internalType": "address",
          "name": "",
          "type": "address"
        }
      ],
      "stateMutability": "view",
      "type": "function"
    },
    {
      "inputs": [
        {
          "internalType": "address",
          "name": "_rewardsDistribution",
          "type": "address"
        }
      ],
      "name": "setRewardsDistribution",
      "outputs": [],
      "stateMutability": "nonpayable",
      "type": "function"
    },
    {
      "inputs": [
        {
          "internalType": "uint256",
          "name": "_rewardsDuration",
          "type": "uint256"
        }
      ],
      "name": "setRewardsDuration",
      "outputs": [],
      "stateMutability": "nonpayable",
      "type": "function"
    },
    {
      "inputs": [
        {
          "internalType": "address",
          "name": "_router",
          "type": "address"
        }
      ],
      "name": "setRouter",
      "outputs": [],
      "stateMutability": "nonpayable",
      "type": "function"
    },
    {
      "inputs": [
        {
          "internalType": "address",
          "name": "account",
          "type": "address"
        },
        {
          "internalType": "uint256",
          "name": "amount",
          "type": "uint256"
        }
      ],
      "name": "stake",
      "outputs": [],
      "stateMutability": "nonpayable",
      "type": "function"
    },
    {
      "inputs": [],
      "name": "stakingToken",
      "outputs": [
        {
          "internalType": "contract IERC20",
          "name": "",
          "type": "address"
        }
      ],
      "stateMutability": "view",
      "type": "function"
    },
    {
      "inputs": [],
      "name": "totalSupply",
      "outputs": [
        {
          "internalType": "uint256",
          "name": "",
          "type": "uint256"
        }
      ],
      "stateMutability": "view",
      "type": "function"
    },
    {
      "inputs": [
        {
          "internalType": "address",
          "name": "newOwner",
          "type": "address"
        }
      ],
      "name": "transferOwnership",
      "outputs": [],
      "stateMutability": "nonpayable",
      "type": "function"
    },
    {
      "inputs": [
        {
          "internalType": "address",
          "name": "",
          "type": "address"
        }
      ],
      "name": "userRewardPerTokenPaid",
      "outputs": [
        {
          "internalType": "uint256",
          "name": "",
          "type": "uint256"
        }
      ],
      "stateMutability": "view",
      "type": "function"
    },
    {
      "inputs": [
        {
          "internalType": "address",
          "name": "account",
          "type": "address"
        },
        {
          "internalType": "uint256",
          "name": "amount",
          "type": "uint256"
        }
      ],
      "name": "withdraw",
      "outputs": [],
      "stateMutability": "nonpayable",
      "type": "function"
    }
  ],
  "bytecode": "0x60c060405262093a806006553480156200001857600080fd5b5060405162001ab738038062001ab78339810160408190526200003b9162000152565b60016000556200004b33620000e3565b6001600160a01b038416620000a65760405162461bcd60e51b815260206004820152601860248201527f4453515374616b696e673a205a65726f20616464726573730000000000000000604482015260640160405180910390fd5b620000b184620000e3565b6001600160a01b03918216608052811660a052600280546001600160a01b0319169290911691909117905550620001af565b600180546001600160a01b038381166001600160a01b0319831681179093556040519116919082907f8be0079c531659141344cd1fd0a4f28419497f9722a3daafe3b4186f6b6457e090600090a35050565b80516001600160a01b03811681146200014d57600080fd5b919050565b600080600080608085870312156200016957600080fd5b620001748562000135565b9350620001846020860162000135565b9250620001946040860162000135565b9150620001a46060860162000135565b905092959194509250565b60805160a0516118bf620001f8600039600081816102ce0152818161099301528181610c0c01526111440152600081816103a70152818161065101526108dd01526118bf6000f3fe608060405234801561001057600080fd5b50600436106101ce5760003560e01c80638980f11f11610104578063cc1a378f116100a2578063ebe2b12b11610071578063ebe2b12b146103d2578063f2fde38b146103db578063f3fef3a3146103ee578063f887ea401461040157600080fd5b8063cc1a378f14610387578063cd3daf9d1461039a578063d1af0c7d146103a2578063df136d65146103c957600080fd5b8063adc9772e116100de578063adc9772e14610345578063b42652e914610358578063c0d786551461036b578063c8f33c911461037e57600080fd5b80638980f11f146103015780638b876347146103145780638da5cb5b1461033457600080fd5b80633fc6df6e11610171578063715018a61161014b578063715018a6146102c157806372f702f3146102c95780637b0a47ee146102f057806380faa57d146102f957600080fd5b80633fc6df6e1461025a5780636b0916951461028557806370a082311461029857600080fd5b806319762143116101ad57806319762143146102215780631c1f78eb14610236578063386a95251461023e5780633c6b16ab1461024757600080fd5b80628cc262146101d35780630700037d146101f957806318160ddd14610219575b600080fd5b6101e66101e1366004611665565b610414565b6040519081526020015b60405180910390f35b6101e6610207366004611665565b600a6020526000908152604090205481565b600b546101e6565b61023461022f366004611665565b610491565b005b6101e66104c8565b6101e660065481565b610234610255366004611687565b6104df565b60025461026d906001600160a01b031681565b6040516001600160a01b0390911681526020016101f0565b6101e66102933660046116a0565b610797565b6101e66102a6366004611665565b6001600160a01b03166000908152600c602052604090205490565b61023461095e565b61026d7f000000000000000000000000000000000000000000000000000000000000000081565b6101e660055481565b6101e6610972565b61023461030f3660046116d3565b610989565b6101e6610322366004611665565b60096020526000908152604090205481565b6001546001600160a01b031661026d565b6102346103533660046116d3565b610aa4565b610234610366366004611665565b610c88565b610234610379366004611665565b610d10565b6101e660075481565b610234610395366004611687565b610de7565b6101e6610eee565b61026d7f000000000000000000000000000000000000000000000000000000000000000081565b6101e660085481565b6101e660045481565b6102346103e9366004611665565b610f4f565b6102346103fc3660046116d3565b610fdf565b60035461026d906001600160a01b031681565b6001600160a01b0381166000908152600a60209081526040808320546009909252822054670de0b6b3a76400009061044a610eee565b610454919061172c565b6001600160a01b0385166000908152600c60205260409020546104779190611743565b6104819190611780565b61048b91906117bb565b92915050565b6104996111a6565b6002805473ffffffffffffffffffffffffffffffffffffffff19166001600160a01b0392909216919091179055565b60006006546005546104da9190611743565b905090565b6002546001600160a01b031633146105645760405162461bcd60e51b815260206004820152603660248201527f4453515374616b696e673a2043616c6c6572206973206e6f742052657761726460448201527f73446973747269627574696f6e20636f6e74726163740000000000000000000060648201526084015b60405180910390fd5b600061056e610eee565b600855610579610972565b6007556001600160a01b038116156105c05761059481610414565b6001600160a01b0382166000908152600a60209081526040808320939093556008546009909152919020555b60045442106105de576006546105d69083611780565b600555610620565b6000426004546105ee919061172c565b90506000600554826106009190611743565b60065490915061061082866117bb565b61061a9190611780565b60055550505b6040517f70a082310000000000000000000000000000000000000000000000000000000081523060048201526000907f00000000000000000000000000000000000000000000000000000000000000006001600160a01b0316906370a0823190602401602060405180830381865afa1580156106a0573d6000803e3d6000fd5b505050506040513d601f19601f820116820180604052508101906106c491906117d3565b9050600654816106d49190611780565b600554111561074a5760405162461bcd60e51b8152602060048201526024808201527f4453515374616b696e673a2050726f76696465642072657761726420746f6f2060448201527f6869676800000000000000000000000000000000000000000000000000000000606482015260840161055b565b42600781905560065461075c916117bb565b6004556040518381527fde88a922e0d3b88b24e9623efeb464919c6bf9f66857a65e2bfcf2ce87a9433d9060200160405180910390a1505050565b6003546000906001600160a01b031633146107f45760405162461bcd60e51b815260206004820152601360248201527f4453515374616b696e673a2021726f7574657200000000000000000000000000604482015260640161055b565b6107fc611200565b82610805610eee565b600855610810610972565b6007556001600160a01b038116156108575761082b81610414565b6001600160a01b0382166000908152600a60209081526040808320939093556008546009909152919020555b6001600160a01b0384166000908152600a6020526040902054806108bd5760405162461bcd60e51b815260206004820152601560248201527f4453515374616b696e673a204e6f207265776172640000000000000000000000604482015260640161055b565b6001600160a01b038086166000908152600a6020526040812055610904907f0000000000000000000000000000000000000000000000000000000000000000168583611259565b836001600160a01b0316856001600160a01b03167f540798df468d7b23d11f156fdb954cb19ad414d150722a7b6d55ba369dea792e8360405161094991815260200190565b60405180910390a391505061048b6001600055565b6109666111a6565b6109706000611307565b565b60006004544210610984575060045490565b504290565b6109916111a6565b7f00000000000000000000000000000000000000000000000000000000000000006001600160a01b0316826001600160a01b031603610a385760405162461bcd60e51b815260206004820152602d60248201527f4453515374616b696e673a2043616e6e6f74207769746864726177207468652060448201527f7374616b696e6720746f6b656e00000000000000000000000000000000000000606482015260840161055b565b610a5e610a4d6001546001600160a01b031690565b6001600160a01b0384169083611259565b604080516001600160a01b0384168152602081018390527f8c1256b8896378cd5044f80c202f9772b9d77dc85c8a6eb51967210b09bfaa28910160405180910390a15050565b6003546001600160a01b03163314610afe5760405162461bcd60e51b815260206004820152601360248201527f4453515374616b696e673a2021726f7574657200000000000000000000000000604482015260640161055b565b610b06611200565b81610b0f610eee565b600855610b1a610972565b6007556001600160a01b03811615610b6157610b3581610414565b6001600160a01b0382166000908152600a60209081526040808320939093556008546009909152919020555b60008211610bb15760405162461bcd60e51b815260206004820152601a60248201527f4453515374616b696e673a2043616e6e6f74207374616b652030000000000000604482015260640161055b565b81600b54610bbf91906117bb565b600b556001600160a01b0383166000908152600c6020526040902054610be69083906117bb565b6001600160a01b038085166000908152600c6020526040902091909155600354610c36917f0000000000000000000000000000000000000000000000000000000000000000811691163085611366565b826001600160a01b03167f9e71bc8eea02a63969f509818f2dafb9254532904319f9dbda79b67bd34a5f3d83604051610c7191815260200190565b60405180910390a250610c846001600055565b5050565b6003546001600160a01b03163314610ce25760405162461bcd60e51b815260206004820152601360248201527f4453515374616b696e673a2021726f7574657200000000000000000000000000604482015260640161055b565b6001600160a01b0381166000908152600c6020526040902054610d06908290610fdf565b610c848182610797565b610d186111a6565b6003546001600160a01b031615610d715760405162461bcd60e51b815260206004820152601f60248201527f4453515374616b696e673a20526f7574657220697320696d6d757461626c6500604482015260640161055b565b600354604080516001600160a01b03928316815291831660208301527f16f1d221b3425f7b275ace551e729c5c59b49ff88f69225008c9e06b0c0c8c5e910160405180910390a16003805473ffffffffffffffffffffffffffffffffffffffff19166001600160a01b0392909216919091179055565b610def6111a6565b6004544211610eb35760405162461bcd60e51b8152602060048201526064602482018190527f4453515374616b696e673a2050726576696f757320726577617264732070657260448301527f696f64206d75737420626520636f6d706c657465206265666f7265206368616e908201527f67696e6720746865206475726174696f6e20666f7220746865206e657720706560848201527f72696f640000000000000000000000000000000000000000000000000000000060a482015260c40161055b565b60068190556040518181527ffb46ca5a5e06d4540d6387b930a7c978bce0db5f449ec6b3f5d07c6e1d44f2d39060200160405180910390a150565b6000600b54600003610f01575060085490565b600b54600554600754610f12610972565b610f1c919061172c565b610f269190611743565b610f3890670de0b6b3a7640000611743565b610f429190611780565b6008546104da91906117bb565b610f576111a6565b6001600160a01b038116610fd35760405162461bcd60e51b815260206004820152602660248201527f4f776e61626c653a206e6577206f776e657220697320746865207a65726f206160448201527f6464726573730000000000000000000000000000000000000000000000000000606482015260840161055b565b610fdc81611307565b50565b6003546001600160a01b031633146110395760405162461bcd60e51b815260206004820152601360248201527f4453515374616b696e673a2021726f7574657200000000000000000000000000604482015260640161055b565b611041611200565b8161104a610eee565b600855611055610972565b6007556001600160a01b0381161561109c5761107081610414565b6001600160a01b0382166000908152600a60209081526040808320939093556008546009909152919020555b600082116110ec5760405162461bcd60e51b815260206004820152601d60248201527f4453515374616b696e673a2043616e6e6f742077697468647261772030000000604482015260640161055b565b81600b546110fa919061172c565b600b556001600160a01b0383166000908152600c602052604090205461112190839061172c565b6001600160a01b038085166000908152600c602052604090209190915561116b907f0000000000000000000000000000000000000000000000000000000000000000168484611259565b826001600160a01b03167f7084f5476618d8e60b11ef0d7d3f06914655adb8793e28ff7f018d4c76d505d583604051610c7191815260200190565b6001546001600160a01b031633146109705760405162461bcd60e51b815260206004820181905260248201527f4f776e61626c653a2063616c6c6572206973206e6f7420746865206f776e6572604482015260640161055b565b6002600054036112525760405162461bcd60e51b815260206004820152601f60248201527f5265656e7472616e637947756172643a207265656e7472616e742063616c6c00604482015260640161055b565b6002600055565b6040516001600160a01b0383166024820152604481018290526113029084907fa9059cbb00000000000000000000000000000000000000000000000000000000906064015b60408051601f198184030181529190526020810180517bffffffffffffffffffffffffffffffffffffffffffffffffffffffff167fffffffff00000000000000000000000000000000000000000000000000000000909316929092179091526113bd565b505050565b600180546001600160a01b0383811673ffffffffffffffffffffffffffffffffffffffff19831681179093556040519116919082907f8be0079c531659141344cd1fd0a4f28419497f9722a3daafe3b4186f6b6457e090600090a35050565b6040516001600160a01b03808516602483015283166044820152606481018290526113b79085907f23b872dd000000000000000000000000000000000000000000000000000000009060840161129e565b50505050565b6000611412826040518060400160405280602081526020017f5361666545524332303a206c6f772d6c6576656c2063616c6c206661696c6564815250856001600160a01b03166114a29092919063ffffffff16565b805190915015611302578080602001905181019061143091906117ec565b6113025760405162461bcd60e51b815260206004820152602a60248201527f5361666545524332303a204552433230206f7065726174696f6e20646964206e60448201527f6f74207375636365656400000000000000000000000000000000000000000000606482015260840161055b565b60606114b184846000856114b9565b949350505050565b6060824710156115315760405162461bcd60e51b815260206004820152602660248201527f416464726573733a20696e73756666696369656e742062616c616e636520666f60448201527f722063616c6c0000000000000000000000000000000000000000000000000000606482015260840161055b565b600080866001600160a01b0316858760405161154d919061183a565b60006040518083038185875af1925050503d806000811461158a576040519150601f19603f3d011682016040523d82523d6000602084013e61158f565b606091505b50915091506115a0878383876115ab565b979650505050505050565b6060831561161a578251600003611613576001600160a01b0385163b6116135760405162461bcd60e51b815260206004820152601d60248201527f416464726573733a2063616c6c20746f206e6f6e2d636f6e7472616374000000604482015260640161055b565b50816114b1565b6114b1838381511561162f5781518083602001fd5b8060405162461bcd60e51b815260040161055b9190611856565b80356001600160a01b038116811461166057600080fd5b919050565b60006020828403121561167757600080fd5b61168082611649565b9392505050565b60006020828403121561169957600080fd5b5035919050565b600080604083850312156116b357600080fd5b6116bc83611649565b91506116ca60208401611649565b90509250929050565b600080604083850312156116e657600080fd5b6116ef83611649565b946020939093013593505050565b7f4e487b7100000000000000000000000000000000000000000000000000000000600052601160045260246000fd5b60008282101561173e5761173e6116fd565b500390565b6000817fffffffffffffffffffffffffffffffffffffffffffffffffffffffffffffffff048311821515161561177b5761177b6116fd565b500290565b6000826117b6577f4e487b7100000000000000000000000000000000000000000000000000000000600052601260045260246000fd5b500490565b600082198211156117ce576117ce6116fd565b500190565b6000602082840312156117e557600080fd5b5051919050565b6000602082840312156117fe57600080fd5b8151801515811461168057600080fd5b60005b83811015611829578181015183820152602001611811565b838111156113b75750506000910152565b6000825161184c81846020870161180e565b9190910192915050565b602081526000825180602084015261187581604085016020870161180e565b601f01601f1916919091016040019291505056fea2646970667358221220a1085e4b46e022d3610d25adfcf8c88e49d8aedfc33e30faab3ee1b5896ff19664736f6c634300080d0033",
  "linkReferences": {},
  "deployedLinkReferences": {}
}