{
  "_format": "hh-sol-artifact-1",
  "contractName": "esDSQStaking",
  "sourceName": "contracts/esDSQStaking.sol",
  "abi": [
    {
      "inputs": [
        {
          "internalType": "address",
          "name": "_dsq",
          "type": "address"
        },
        {
          "internalType": "address",
          "name": "_esdsq",
          "type": "address"
        },
        {
          "internalType": "address",
          "name": "_dsqStaking",
          "type": "address"
        }
      ],
      "stateMutability": "nonpayable",
      "type": "constructor"
    },
    {
      "anonymous": false,
      "inputs": [
        {
          "indexed": false,
          "internalType": "uint256",
          "name": "oldRate",
          "type": "uint256"
        },
        {
          "indexed": false,
          "internalType": "uint256",
          "name": "newRate",
          "type": "uint256"
        }
      ],
      "name": "NewRewardRate",
      "type": "event"
    },
    {
      "anonymous": false,
      "inputs": [
        {
          "indexed": false,
          "internalType": "address",
          "name": "oldRouter",
          "type": "address"
        },
        {
          "indexed": false,
          "internalType": "address",
          "name": "newRouter",
          "type": "address"
        }
      ],
      "name": "NewRouter",
      "type": "event"
    },
    {
      "anonymous": false,
      "inputs": [
        {
          "indexed": false,
          "internalType": "uint256",
          "name": "oldVestingDuration",
          "type": "uint256"
        },
        {
          "indexed": false,
          "internalType": "uint256",
          "name": "newVestingDuration",
          "type": "uint256"
        }
      ],
      "name": "NewVestingDuration",
      "type": "event"
    },
    {
      "anonymous": false,
      "inputs": [
        {
          "indexed": true,
          "internalType": "address",
          "name": "previousOwner",
          "type": "address"
        },
        {
          "indexed": true,
          "internalType": "address",
          "name": "newOwner",
          "type": "address"
        }
      ],
      "name": "OwnershipTransferred",
      "type": "event"
    },
    {
      "anonymous": false,
      "inputs": [
        {
          "indexed": true,
          "internalType": "address",
          "name": "user",
          "type": "address"
        },
        {
          "indexed": true,
          "internalType": "address",
          "name": "recipient",
          "type": "address"
        },
        {
          "indexed": false,
          "internalType": "uint256",
          "name": "reward",
          "type": "uint256"
        }
      ],
      "name": "RewardPaid",
      "type": "event"
    },
    {
      "anonymous": false,
      "inputs": [
        {
          "indexed": true,
          "internalType": "address",
          "name": "user",
          "type": "address"
        },
        {
          "indexed": false,
          "internalType": "uint256",
          "name": "amount",
          "type": "uint256"
        }
      ],
      "name": "Staked",
      "type": "event"
    },
    {
      "anonymous": false,
      "inputs": [
        {
          "indexed": true,
          "internalType": "address",
          "name": "user",
          "type": "address"
        },
        {
          "indexed": false,
          "internalType": "uint256",
          "name": "amount",
          "type": "uint256"
        }
      ],
      "name": "Withdrawn",
      "type": "event"
    },
    {
      "inputs": [
        {
          "internalType": "address",
          "name": "_account",
          "type": "address"
        },
        {
          "internalType": "address",
          "name": "_recipient",
          "type": "address"
        }
      ],
      "name": "claim",
      "outputs": [
        {
          "internalType": "uint256",
          "name": "",
          "type": "uint256"
        }
      ],
      "stateMutability": "nonpayable",
      "type": "function"
    },
    {
      "inputs": [],
      "name": "dsq",
      "outputs": [
        {
          "internalType": "contract IERC20",
          "name": "",
          "type": "address"
        }
      ],
      "stateMutability": "view",
      "type": "function"
    },
    {
      "inputs": [],
      "name": "dsqStaking",
      "outputs": [
        {
          "internalType": "contract IDSQStaking",
          "name": "",
          "type": "address"
        }
      ],
      "stateMutability": "view",
      "type": "function"
    },
    {
      "inputs": [
        {
          "internalType": "address",
          "name": "_account",
          "type": "address"
        }
      ],
      "name": "emergencyWithdraw",
      "outputs": [],
      "stateMutability": "nonpayable",
      "type": "function"
    },
    {
      "inputs": [],
      "name": "esdsq",
      "outputs": [
        {
          "internalType": "contract IERC20Burnable",
          "name": "",
          "type": "address"
        }
      ],
      "stateMutability": "view",
      "type": "function"
    },
    {
      "inputs": [],
      "name": "maxVestingDuration",
      "outputs": [
        {
          "internalType": "uint256",
          "name": "",
          "type": "uint256"
        }
      ],
      "stateMutability": "view",
      "type": "function"
    },
    {
      "inputs": [
        {
          "internalType": "address",
          "name": "_account",
          "type": "address"
        }
      ],
      "name": "notify",
      "outputs": [],
      "stateMutability": "nonpayable",
      "type": "function"
    },
    {
      "inputs": [],
      "name": "owner",
      "outputs": [
        {
          "internalType": "address",
          "name": "",
          "type": "address"
        }
      ],
      "stateMutability": "view",
      "type": "function"
    },
    {
      "inputs": [
        {
          "internalType": "address",
          "name": "",
          "type": "address"
        }
      ],
      "name": "positions",
      "outputs": [
        {
          "internalType": "uint256",
          "name": "fullyVestedTime",
          "type": "uint256"
        },
        {
          "internalType": "uint256",
          "name": "positionAmount",
          "type": "uint256"
        },
        {
          "internalType": "uint256",
          "name": "positionRate",
          "type": "uint256"
        },
        {
          "internalType": "uint256",
          "name": "pausedTime",
          "type": "uint256"
        }
      ],
      "stateMutability": "view",
      "type": "function"
    },
    {
      "inputs": [],
      "name": "renounceOwnership",
      "outputs": [],
      "stateMutability": "nonpayable",
      "type": "function"
    },
    {
      "inputs": [],
      "name": "rewardRate",
      "outputs": [
        {
          "internalType": "uint256",
          "name": "",
          "type": "uint256"
        }
      ],
      "stateMutability": "view",
      "type": "function"
    },
    {
      "inputs": [],
      "name": "router",
      "outputs": [
        {
          "internalType": "address",
          "name": "",
          "type": "address"
        }
      ],
      "stateMutability": "view",
      "type": "function"
    },
    {
      "inputs": [
        {
          "internalType": "uint128",
          "name": "_rate",
          "type": "uint128"
        }
      ],
      "name": "setRewardRate",
      "outputs": [],
      "stateMutability": "nonpayable",
      "type": "function"
    },
    {
      "inputs": [
        {
          "internalType": "address",
          "name": "_router",
          "type": "address"
        }
      ],
      "name": "setRouter",
      "outputs": [],
      "stateMutability": "nonpayable",
      "type": "function"
    },
    {
      "inputs": [
        {
          "internalType": "uint256",
          "name": "_vestingDuration",
          "type": "uint256"
        }
      ],
      "name": "setVestingDuration",
      "outputs": [],
      "stateMutability": "nonpayable",
      "type": "function"
    },
    {
      "inputs": [
        {
          "internalType": "address",
          "name": "_account",
          "type": "address"
        },
        {
          "internalType": "uint256",
          "name": "_amount",
          "type": "uint256"
        },
        {
          "internalType": "bool",
          "name": "_adminStake",
          "type": "bool"
        }
      ],
      "name": "stake",
      "outputs": [],
      "stateMutability": "nonpayable",
      "type": "function"
    },
    {
      "inputs": [],
      "name": "totalStaked",
      "outputs": [
        {
          "internalType": "uint256",
          "name": "",
          "type": "uint256"
        }
      ],
      "stateMutability": "view",
      "type": "function"
    },
    {
      "inputs": [
        {
          "internalType": "address",
          "name": "newOwner",
          "type": "address"
        }
      ],
      "name": "transferOwnership",
      "outputs": [],
      "stateMutability": "nonpayable",
      "type": "function"
    },
    {
      "inputs": [],
      "name": "vestingDuration",
      "outputs": [
        {
          "internalType": "uint256",
          "name": "",
          "type": "uint256"
        }
      ],
      "stateMutability": "view",
      "type": "function"
    }
  ],
  "bytecode": "0x60e0604052670de0b6b3a76400006002556301e133806003553480156200002557600080fd5b50604051620016cb380380620016cb8339810160408190526200004891620000de565b620000533362000071565b6001600160a01b0392831660805290821660a0521660c05262000128565b600080546001600160a01b038381166001600160a01b0319831681178455604051919092169283917f8be0079c531659141344cd1fd0a4f28419497f9722a3daafe3b4186f6b6457e09190a35050565b80516001600160a01b0381168114620000d957600080fd5b919050565b600080600060608486031215620000f457600080fd5b620000ff84620000c1565b92506200010f60208501620000c1565b91506200011f60408501620000c1565b90509250925092565b60805160a05160c051611549620001826000396000818161027d015281816108d50152610d4101526000818161021a015281816106c801528181610b110152610fb90152600081816102b8015261076901526115496000f3fe608060405234801561001057600080fd5b50600436106101515760003560e01c80637b0a47ee116100cd5780638da5cb5b11610081578063c0d7865511610066578063c0d78655146102fe578063f2fde38b14610311578063f887ea401461032457600080fd5b80638da5cb5b146102da578063995846bd146102eb57600080fd5b806380c33932116100b257806380c339321461029f578063817b1cd2146102aa5780638ab4055c146102b357600080fd5b80637b0a47ee1461026f5780637bc1057a1461027857600080fd5b806355f57510116101245780636954e232116101095780636954e232146102155780636ff1c9bc14610254578063715018a61461026757600080fd5b806355f57510146101ad5780635fb9cf201461020257600080fd5b8063034f4a09146101565780630ffbdcaa1461016b5780631514617e1461017e57806321c0b3421461019a575b600080fd5b610169610164366004611304565b610337565b005b610169610179366004611336565b61040a565b61018760035481565b6040519081526020015b60405180910390f35b6101876101a836600461136b565b6104a7565b6101e26101bb36600461139e565b60056020526000908152604090208054600182015460028301546003909301549192909184565b604080519485526020850193909352918301526060820152608001610191565b61016961021036600461139e565b61082f565b61023c7f000000000000000000000000000000000000000000000000000000000000000081565b6040516001600160a01b039091168152602001610191565b61016961026236600461139e565b6109b9565b610169610bc7565b61018760025481565b61023c7f000000000000000000000000000000000000000000000000000000000000000081565b6101876301e1338081565b61018760045481565b61023c7f000000000000000000000000000000000000000000000000000000000000000081565b6000546001600160a01b031661023c565b6101696102f93660046113c7565b610bdb565b61016961030c36600461139e565b611072565b61016961031f36600461139e565b61117a565b60015461023c906001600160a01b031681565b61033f61120a565b806fffffffffffffffffffffffffffffffff166000036103a65760405162461bcd60e51b815260206004820152601760248201527f65734453515374616b696e673a205a65726f207261746500000000000000000060448201526064015b60405180910390fd5b600254604080519182526fffffffffffffffffffffffffffffffff831660208301527fa1b67e7485d81f319b2c43daa7d7ede8fe4c6024aee2b6d69844d1607d7b71c4910160405180910390a16fffffffffffffffffffffffffffffffff16600255565b61041261120a565b6301e133808111156104665760405162461bcd60e51b815260206004820181905260248201527f65734453515374616b696e673a206d617856657374696e674475726174696f6e604482015260640161039d565b60035460408051918252602082018390527f5158bc3481e4a7628eaacc99236492fc98a65f895df256fa8268d96eff56df4f910160405180910390a1600355565b6001546000906001600160a01b031633146105045760405162461bcd60e51b815260206004820152601560248201527f65734453515374616b696e673a2021726f757465720000000000000000000000604482015260640161039d565b6001600160a01b038316600090815260056020526040902060018101541580159061052f5750805415155b61057b5760405162461bcd60e51b815260206004820181905260248201527f65734453515374616b696e673a204e6f2076657374656420706f736974696f6e604482015260640161039d565b80544210156105f25760405162461bcd60e51b815260206004820152602360248201527f65734453515374616b696e673a2056657374696e67206e6f7420636f6d706c6560448201527f7465640000000000000000000000000000000000000000000000000000000000606482015260840161039d565b6003810154156106445760405162461bcd60e51b815260206004820152601d60248201527f65734453515374616b696e673a20506f736974696f6e20706175736564000000604482015260640161039d565b60018101546002820154600090670de0b6b3a7640000906106659084611436565b61066f9190611473565b9050816004600082825461068391906114ae565b909155505060006001840181905580845560028401556040517f42966c68000000000000000000000000000000000000000000000000000000008152600481018390527f00000000000000000000000000000000000000000000000000000000000000006001600160a01b0316906342966c6890602401600060405180830381600087803b15801561071457600080fd5b505af1158015610728573d6000803e3d6000fd5b50506040517fa9059cbb0000000000000000000000000000000000000000000000000000000081526001600160a01b038881166004830152602482018590527f000000000000000000000000000000000000000000000000000000000000000016925063a9059cbb91506044016020604051808303816000875af11580156107b4573d6000803e3d6000fd5b505050506040513d601f19601f820116820180604052508101906107d891906114c5565b50846001600160a01b0316866001600160a01b03167f540798df468d7b23d11f156fdb954cb19ad414d150722a7b6d55ba369dea792e8360405161081e91815260200190565b60405180910390a395945050505050565b6001546001600160a01b031633146108895760405162461bcd60e51b815260206004820152601560248201527f65734453515374616b696e673a2021726f757465720000000000000000000000604482015260640161039d565b6001600160a01b0381811660008181526005602052604080822090517f70a0823100000000000000000000000000000000000000000000000000000000815260048101939093529290917f0000000000000000000000000000000000000000000000000000000000000000909116906370a0823190602401602060405180830381865afa15801561091e573d6000803e3d6000fd5b505050506040513d601f19601f8201168201806040525081019061094291906114e2565b905080826001015411801561095957506003820154155b1561096957426003830155505050565b816001015481101580156109805750600382015415155b156109b457600382015461099490426114ae565b8260000160008282546109a791906114fb565b9091555050600060038301555b505050565b6001546001600160a01b03163314610a135760405162461bcd60e51b815260206004820152601560248201527f65734453515374616b696e673a2021726f757465720000000000000000000000604482015260640161039d565b6001600160a01b0381166000908152600560205260409020600181015480610aa35760405162461bcd60e51b815260206004820152602260248201527f65734453515374616b696e673a20496e73756666696369656e742062616c616e60448201527f6365000000000000000000000000000000000000000000000000000000000000606482015260840161039d565b8060046000828254610ab591906114ae565b90915550506000600183018190558083556003830181905560028301556040517fa9059cbb0000000000000000000000000000000000000000000000000000000081526001600160a01b038481166004830152602482018390527f0000000000000000000000000000000000000000000000000000000000000000169063a9059cbb906044016020604051808303816000875af1158015610b5a573d6000803e3d6000fd5b505050506040513d601f19601f82011682018060405250810190610b7e91906114c5565b50826001600160a01b03167f7084f5476618d8e60b11ef0d7d3f06914655adb8793e28ff7f018d4c76d505d582604051610bba91815260200190565b60405180910390a2505050565b610bcf61120a565b610bd96000611264565b565b6001546001600160a01b03163314610c355760405162461bcd60e51b815260206004820152601560248201527f65734453515374616b696e673a2021726f757465720000000000000000000000604482015260640161039d565b60008211610c855760405162461bcd60e51b815260206004820152601c60248201527f65734453515374616b696e673a2043616e6e6f74207374616b65203000000000604482015260640161039d565b6001600160a01b03831660009081526005602052604090208115610cfa57600381015415610cf55760405162461bcd60e51b815260206004820152601d60248201527f65734453515374616b696e673a20506f736974696f6e20706175736564000000604482015260640161039d565b610e20565b6001810154610d0990846114fb565b6040517f70a082310000000000000000000000000000000000000000000000000000000081526001600160a01b0386811660048301527f000000000000000000000000000000000000000000000000000000000000000016906370a0823190602401602060405180830381865afa158015610d88573d6000803e3d6000fd5b505050506040513d601f19601f82011682018060405250810190610dac91906114e2565b1015610e205760405162461bcd60e51b815260206004820152602560248201527f65734453515374616b696e673a20496e73756666696369656e7420445351207360448201527f74616b6564000000000000000000000000000000000000000000000000000000606482015260840161039d565b8054600003610e4c57600354610e3690426114fb565b8155600181018390556002805490820155610f5a565b80546001820154428211610ea25760405162461bcd60e51b815260206004820181905260248201527f65734453515374616b696e673a20506f736974696f6e20636c61696d61626c65604482015260640161039d565b6000610ee4610eb187846114fb565b87600354610ebf9190611436565b84610eca42886114ae565b610ed49190611436565b610ede91906114fb565b906112cc565b90506000610ef287846114fb565b87600254610f009190611436565b848760020154610f109190611436565b610f1a91906114fb565b610f249190611473565b9050610f3082426114fb565b855560028501819055600185018054889190600090610f509084906114fb565b9091555050505050505b8260046000828254610f6c91906114fb565b90915550506001546040517f23b872dd0000000000000000000000000000000000000000000000000000000081526001600160a01b039182166004820152306024820152604481018590527f0000000000000000000000000000000000000000000000000000000000000000909116906323b872dd906064016020604051808303816000875af1158015611004573d6000803e3d6000fd5b505050506040513d601f19601f8201168201806040525081019061102891906114c5565b50836001600160a01b03167f9e71bc8eea02a63969f509818f2dafb9254532904319f9dbda79b67bd34a5f3d8460405161106491815260200190565b60405180910390a250505050565b61107a61120a565b6001546001600160a01b0316156110f95760405162461bcd60e51b815260206004820152602160248201527f65734453515374616b696e673a20526f7574657220697320696d6d757461626c60448201527f6500000000000000000000000000000000000000000000000000000000000000606482015260840161039d565b600154604080516001600160a01b03928316815291831660208301527f16f1d221b3425f7b275ace551e729c5c59b49ff88f69225008c9e06b0c0c8c5e910160405180910390a1600180547fffffffffffffffffffffffff0000000000000000000000000000000000000000166001600160a01b0392909216919091179055565b61118261120a565b6001600160a01b0381166111fe5760405162461bcd60e51b815260206004820152602660248201527f4f776e61626c653a206e6577206f776e657220697320746865207a65726f206160448201527f6464726573730000000000000000000000000000000000000000000000000000606482015260840161039d565b61120781611264565b50565b6000546001600160a01b03163314610bd95760405162461bcd60e51b815260206004820181905260248201527f4f776e61626c653a2063616c6c6572206973206e6f7420746865206f776e6572604482015260640161039d565b600080546001600160a01b038381167fffffffffffffffffffffffff0000000000000000000000000000000000000000831681178455604051919092169283917f8be0079c531659141344cd1fd0a4f28419497f9722a3daafe3b4186f6b6457e09190a35050565b600082156112fa57816112e06001856114ae565b6112ea9190611473565b6112f59060016114fb565b6112fd565b60005b9392505050565b60006020828403121561131657600080fd5b81356fffffffffffffffffffffffffffffffff811681146112fd57600080fd5b60006020828403121561134857600080fd5b5035919050565b80356001600160a01b038116811461136657600080fd5b919050565b6000806040838503121561137e57600080fd5b6113878361134f565b91506113956020840161134f565b90509250929050565b6000602082840312156113b057600080fd5b6112fd8261134f565b801515811461120757600080fd5b6000806000606084860312156113dc57600080fd5b6113e58461134f565b92506020840135915060408401356113fc816113b9565b809150509250925092565b7f4e487b7100000000000000000000000000000000000000000000000000000000600052601160045260246000fd5b6000817fffffffffffffffffffffffffffffffffffffffffffffffffffffffffffffffff048311821515161561146e5761146e611407565b500290565b6000826114a9577f4e487b7100000000000000000000000000000000000000000000000000000000600052601260045260246000fd5b500490565b6000828210156114c0576114c0611407565b500390565b6000602082840312156114d757600080fd5b81516112fd816113b9565b6000602082840312156114f457600080fd5b5051919050565b6000821982111561150e5761150e611407565b50019056fea264697066735822122006e99b397e55be8f154e730650f36f54c2d5011c8a26a71a3c188f7ad3eb03d864736f6c634300080d0033",
  "linkReferences": {},
  "deployedLinkReferences": {}
}