{
  "_format": "hh-sol-artifact-1",
  "contractName": "Router",
  "sourceName": "contracts/Router.sol",
  "abi": [
    {
      "inputs": [
        {
          "internalType": "address",
          "name": "_dsq",
          "type": "address"
        },
        {
          "internalType": "address",
          "name": "_esdsq",
          "type": "address"
        },
        {
          "internalType": "address",
          "name": "_dsqStaking",
          "type": "address"
        },
        {
          "internalType": "address",
          "name": "_esdsqStaking",
          "type": "address"
        }
      ],
      "stateMutability": "nonpayable",
      "type": "constructor"
    },
    {
      "anonymous": false,
      "inputs": [
        {
          "indexed": true,
          "internalType": "address",
          "name": "previousOwner",
          "type": "address"
        },
        {
          "indexed": true,
          "internalType": "address",
          "name": "newOwner",
          "type": "address"
        }
      ],
      "name": "OwnershipTransferred",
      "type": "event"
    },
    {
      "anonymous": false,
      "inputs": [
        {
          "indexed": false,
          "internalType": "address",
          "name": "account",
          "type": "address"
        }
      ],
      "name": "Paused",
      "type": "event"
    },
    {
      "anonymous": false,
      "inputs": [
        {
          "indexed": false,
          "internalType": "address",
          "name": "account",
          "type": "address"
        }
      ],
      "name": "Unpaused",
      "type": "event"
    },
    {
      "inputs": [
        {
          "internalType": "address",
          "name": "_account",
          "type": "address"
        },
        {
          "internalType": "uint256",
          "name": "_amount",
          "type": "uint256"
        }
      ],
      "name": "adminStakeESDSQStaking",
      "outputs": [],
      "stateMutability": "nonpayable",
      "type": "function"
    },
    {
      "inputs": [],
      "name": "claimESDSQStaking",
      "outputs": [],
      "stateMutability": "nonpayable",
      "type": "function"
    },
    {
      "inputs": [],
      "name": "claimESDSQStakingAndStakeDSQStaking",
      "outputs": [],
      "stateMutability": "nonpayable",
      "type": "function"
    },
    {
      "inputs": [],
      "name": "dsq",
      "outputs": [
        {
          "internalType": "contract IERC20",
          "name": "",
          "type": "address"
        }
      ],
      "stateMutability": "view",
      "type": "function"
    },
    {
      "inputs": [],
      "name": "dsqStaking",
      "outputs": [
        {
          "internalType": "contract IDSQStaking",
          "name": "",
          "type": "address"
        }
      ],
      "stateMutability": "view",
      "type": "function"
    },
    {
      "inputs": [],
      "name": "emergencyWithdrawAll",
      "outputs": [],
      "stateMutability": "nonpayable",
      "type": "function"
    },
    {
      "inputs": [],
      "name": "emergencyWithdrawDSQStaking",
      "outputs": [],
      "stateMutability": "nonpayable",
      "type": "function"
    },
    {
      "inputs": [],
      "name": "emergencyWithdrawESDSQStaking",
      "outputs": [],
      "stateMutability": "nonpayable",
      "type": "function"
    },
    {
      "inputs": [],
      "name": "esdsq",
      "outputs": [
        {
          "internalType": "contract IERC20",
          "name": "",
          "type": "address"
        }
      ],
      "stateMutability": "view",
      "type": "function"
    },
    {
      "inputs": [],
      "name": "esdsqStaking",
      "outputs": [
        {
          "internalType": "contract IesDSQStaking",
          "name": "",
          "type": "address"
        }
      ],
      "stateMutability": "view",
      "type": "function"
    },
    {
      "inputs": [],
      "name": "exitDSQStaking",
      "outputs": [],
      "stateMutability": "nonpayable",
      "type": "function"
    },
    {
      "inputs": [],
      "name": "harvestDSQStaking",
      "outputs": [],
      "stateMutability": "nonpayable",
      "type": "function"
    },
    {
      "inputs": [],
      "name": "harvestDSQStakingAndStakeESDSQStaking",
      "outputs": [],
      "stateMutability": "nonpayable",
      "type": "function"
    },
    {
      "inputs": [],
      "name": "owner",
      "outputs": [
        {
          "internalType": "address",
          "name": "",
          "type": "address"
        }
      ],
      "stateMutability": "view",
      "type": "function"
    },
    {
      "inputs": [],
      "name": "pause",
      "outputs": [],
      "stateMutability": "nonpayable",
      "type": "function"
    },
    {
      "inputs": [],
      "name": "paused",
      "outputs": [
        {
          "internalType": "bool",
          "name": "",
          "type": "bool"
        }
      ],
      "stateMutability": "view",
      "type": "function"
    },
    {
      "inputs": [],
      "name": "renounceOwnership",
      "outputs": [],
      "stateMutability": "nonpayable",
      "type": "function"
    },
    {
      "inputs": [
        {
          "internalType": "uint256",
          "name": "_amount",
          "type": "uint256"
        }
      ],
      "name": "stakeDSQStaking",
      "outputs": [],
      "stateMutability": "nonpayable",
      "type": "function"
    },
    {
      "inputs": [
        {
          "internalType": "uint256",
          "name": "_amount",
          "type": "uint256"
        }
      ],
      "name": "stakeESDSQStaking",
      "outputs": [],
      "stateMutability": "nonpayable",
      "type": "function"
    },
    {
      "inputs": [
        {
          "internalType": "address",
          "name": "newOwner",
          "type": "address"
        }
      ],
      "name": "transferOwnership",
      "outputs": [],
      "stateMutability": "nonpayable",
      "type": "function"
    },
    {
      "inputs": [],
      "name": "unpause",
      "outputs": [],
      "stateMutability": "nonpayable",
      "type": "function"
    },
    {
      "inputs": [
        {
          "internalType": "uint256",
          "name": "_amount",
          "type": "uint256"
        }
      ],
      "name": "withdrawDSQStaking",
      "outputs": [],
      "stateMutability": "nonpayable",
      "type": "function"
    }
  ],
  "bytecode": "0x6101006040523480156200001257600080fd5b50604051620017c6380380620017c68339810160408190526200003591620001d8565b62000040336200016b565b6000805460ff60a01b19169055600180556001600160a01b03848116608081905284821660a05283821660c081905291831660e05260405163095ea7b360e01b8152600481019290925260001960248301529063095ea7b3906044016020604051808303816000875af1158015620000bc573d6000803e3d6000fd5b505050506040513d601f19601f82011682018060405250810190620000e2919062000235565b5060a05160e05160405163095ea7b360e01b81526001600160a01b039182166004820152600019602482015291169063095ea7b3906044016020604051808303816000875af11580156200013a573d6000803e3d6000fd5b505050506040513d601f19601f8201168201806040525081019062000160919062000235565b505050505062000260565b600080546001600160a01b038381166001600160a01b0319831681178455604051919092169283917f8be0079c531659141344cd1fd0a4f28419497f9722a3daafe3b4186f6b6457e09190a35050565b80516001600160a01b0381168114620001d357600080fd5b919050565b60008060008060808587031215620001ef57600080fd5b620001fa85620001bb565b93506200020a60208601620001bb565b92506200021a60408601620001bb565b91506200022a60608601620001bb565b905092959194509250565b6000602082840312156200024857600080fd5b815180151581146200025957600080fd5b9392505050565b60805160a05160c05160e051611484620003426000396000818161018c015281816104d301528181610626015281816107820152818161094001528181610a2601528181610b2701528181610cc101528181610d3501528181610e4501528181610f6a01526110bf015260008181610241015281816103640152818161058b015281816108c8015281816109af01528181610aba01528181610b9701528181610c2e01528181610ef201528181610fdc01526110730152600081816101ff0152818161043a01526106df015260008181610278015261081d01526114846000f3fe608060405234801561001057600080fd5b50600436106101825760003560e01c80638da5cb5b116100d8578063d62b90171161008c578063f2fde38b11610066578063f2fde38b14610304578063f662e35d14610317578063fa2642a51461031f57600080fd5b8063d62b9017146102ec578063dd191719146102f4578063df85ee97146102fc57600080fd5b8063a8b569a2116100bd578063a8b569a2146102be578063bba1bf94146102d1578063d27931d5146102d957600080fd5b80638da5cb5b1461029a5780638ed6c45c146102ab57600080fd5b8063715018a61161013a5780637d1a44fc116101145780637d1a44fc146102635780638456cb591461026b5780638ab4055c1461027357600080fd5b8063715018a61461022157806375bff5a1146102295780637bc1057a1461023c57600080fd5b80633f4ba83a1161016b5780633f4ba83a146101d55780635c975abb146101dd5780636954e232146101fa57600080fd5b80631ccaf7051461018757806327eb6ff2146101cb575b600080fd5b6101ae7f000000000000000000000000000000000000000000000000000000000000000081565b6040516001600160a01b0390911681526020015b60405180910390f35b6101d3610327565b005b6101d36103e6565b600054600160a01b900460ff1660405190151581526020016101c2565b6101ae7f000000000000000000000000000000000000000000000000000000000000000081565b6101d36103f6565b6101d3610237366004611392565b610408565b6101ae7f000000000000000000000000000000000000000000000000000000000000000081565b6101d3610544565b6101d3610695565b6101ae7f000000000000000000000000000000000000000000000000000000000000000081565b6000546001600160a01b03166101ae565b6101d36102b93660046113c7565b6106a5565b6101d36102cc366004611392565b6107eb565b6101d3610979565b6101d36102e7366004611392565b610a96565b6101d3610af1565b6101d3610b5e565b6101d3610cf8565b6101d36103123660046113f1565b610d6c565b6101d3610dfe565b6101d3610fa3565b61032f6110f6565b6040517f6b091695000000000000000000000000000000000000000000000000000000008152336004820181905260248201527f00000000000000000000000000000000000000000000000000000000000000006001600160a01b031690636b091695906044015b6020604051808303816000875af11580156103b6573d6000803e3d6000fd5b505050506040513d601f19601f820116820180604052508101906103da9190611413565b506103e460018055565b565b6103ee61114f565b6103e46111a9565b6103fe61114f565b6103e46000611219565b610410611281565b6104186110f6565b6040516323b872dd60e01b8152336004820152306024820152604481018290527f00000000000000000000000000000000000000000000000000000000000000006001600160a01b0316906323b872dd906064016020604051808303816000875af115801561048b573d6000803e3d6000fd5b505050506040513d601f19601f820116820180604052508101906104af919061142c565b5060405163995846bd60e01b815233600482015260248101829052600060448201527f00000000000000000000000000000000000000000000000000000000000000006001600160a01b03169063995846bd906064015b600060405180830381600087803b15801561052057600080fd5b505af1158015610534573d6000803e3d6000fd5b5050505061054160018055565b50565b61054c611281565b6105546110f6565b6040517f6b0916950000000000000000000000000000000000000000000000000000000081523360048201523060248201526000907f00000000000000000000000000000000000000000000000000000000000000006001600160a01b031690636b091695906044016020604051808303816000875af11580156105dc573d6000803e3d6000fd5b505050506040513d601f19601f820116820180604052508101906106009190611413565b60405163995846bd60e01b815233600482015260248101829052600060448201529091507f00000000000000000000000000000000000000000000000000000000000000006001600160a01b03169063995846bd906064015b600060405180830381600087803b15801561067357600080fd5b505af1158015610687573d6000803e3d6000fd5b50505050506103e460018055565b61069d61114f565b6103e46112db565b6106ad611281565b6106b561114f565b6106bd6110f6565b6040516323b872dd60e01b8152336004820152306024820152604481018290527f00000000000000000000000000000000000000000000000000000000000000006001600160a01b0316906323b872dd906064016020604051808303816000875af1158015610730573d6000803e3d6000fd5b505050506040513d601f19601f82011682018060405250810190610754919061142c565b5060405163995846bd60e01b81526001600160a01b03838116600483015260248201839052600160448301527f0000000000000000000000000000000000000000000000000000000000000000169063995846bd90606401600060405180830381600087803b1580156107c657600080fd5b505af11580156107da573d6000803e3d6000fd5b505050506107e760018055565b5050565b6107f3611281565b6107fb6110f6565b6040516323b872dd60e01b8152336004820152306024820152604481018290527f00000000000000000000000000000000000000000000000000000000000000006001600160a01b0316906323b872dd906064016020604051808303816000875af115801561086e573d6000803e3d6000fd5b505050506040513d601f19601f82011682018060405250810190610892919061142c565b506040517fadc9772e000000000000000000000000000000000000000000000000000000008152336004820152602481018290527f00000000000000000000000000000000000000000000000000000000000000006001600160a01b03169063adc9772e906044015b600060405180830381600087803b15801561091557600080fd5b505af1158015610929573d6000803e3d6000fd5b50506040516302fdce7960e51b81523360048201527f00000000000000000000000000000000000000000000000000000000000000006001600160a01b03169250635fb9cf209150602401610506565b6109816110f6565b6040517fb42652e90000000000000000000000000000000000000000000000000000000081523360048201527f00000000000000000000000000000000000000000000000000000000000000006001600160a01b03169063b42652e990602401600060405180830381600087803b1580156109fb57600080fd5b505af1158015610a0f573d6000803e3d6000fd5b50506040516302fdce7960e51b81523360048201527f00000000000000000000000000000000000000000000000000000000000000006001600160a01b03169250635fb9cf2091506024015b600060405180830381600087803b158015610a7557600080fd5b505af1158015610a89573d6000803e3d6000fd5b505050506103e460018055565b610a9e6110f6565b60405163f3fef3a360e01b8152336004820152602481018290527f00000000000000000000000000000000000000000000000000000000000000006001600160a01b03169063f3fef3a3906044016108fb565b610af96110f6565b6040517f6ff1c9bc0000000000000000000000000000000000000000000000000000000081523360048201527f00000000000000000000000000000000000000000000000000000000000000006001600160a01b031690636ff1c9bc90602401610a5b565b610b666110f6565b6040517f70a082310000000000000000000000000000000000000000000000000000000081523360048201526000907f00000000000000000000000000000000000000000000000000000000000000006001600160a01b0316906370a0823190602401602060405180830381865afa158015610be6573d6000803e3d6000fd5b505050506040513d601f19601f82011682018060405250810190610c0a9190611413565b90508015610c935760405163f3fef3a360e01b8152336004820152602481018290527f00000000000000000000000000000000000000000000000000000000000000006001600160a01b03169063f3fef3a390604401600060405180830381600087803b158015610c7a57600080fd5b505af1158015610c8e573d6000803e3d6000fd5b505050505b6040517f6ff1c9bc0000000000000000000000000000000000000000000000000000000081523360048201527f00000000000000000000000000000000000000000000000000000000000000006001600160a01b031690636ff1c9bc90602401610659565b610d006110f6565b6040517f21c0b342000000000000000000000000000000000000000000000000000000008152336004820181905260248201527f00000000000000000000000000000000000000000000000000000000000000006001600160a01b0316906321c0b34290604401610397565b610d7461114f565b6001600160a01b038116610df55760405162461bcd60e51b815260206004820152602660248201527f4f776e61626c653a206e6577206f776e657220697320746865207a65726f206160448201527f646472657373000000000000000000000000000000000000000000000000000060648201526084015b60405180910390fd5b61054181611219565b610e06611281565b610e0e6110f6565b6040517f21c0b3420000000000000000000000000000000000000000000000000000000081523360048201523060248201526000907f00000000000000000000000000000000000000000000000000000000000000006001600160a01b0316906321c0b342906044016020604051808303816000875af1158015610e96573d6000803e3d6000fd5b505050506040513d601f19601f82011682018060405250810190610eba9190611413565b6040517fadc9772e000000000000000000000000000000000000000000000000000000008152336004820152602481018290529091507f00000000000000000000000000000000000000000000000000000000000000006001600160a01b03169063adc9772e906044015b600060405180830381600087803b158015610f3f57600080fd5b505af1158015610f53573d6000803e3d6000fd5b50506040516302fdce7960e51b81523360048201527f00000000000000000000000000000000000000000000000000000000000000006001600160a01b03169250635fb9cf209150602401610659565b610fab6110f6565b6040517f70a082310000000000000000000000000000000000000000000000000000000081523360048201526000907f00000000000000000000000000000000000000000000000000000000000000006001600160a01b0316906370a0823190602401602060405180830381865afa15801561102b573d6000803e3d6000fd5b505050506040513d601f19601f8201168201806040525081019061104f9190611413565b905080156110aa5760405163f3fef3a360e01b8152336004820152602481018290527f00000000000000000000000000000000000000000000000000000000000000006001600160a01b03169063f3fef3a390604401610f25565b6040516302fdce7960e51b81523360048201527f00000000000000000000000000000000000000000000000000000000000000006001600160a01b031690635fb9cf2090602401610659565b6002600154036111485760405162461bcd60e51b815260206004820152601f60248201527f5265656e7472616e637947756172643a207265656e7472616e742063616c6c006044820152606401610dec565b6002600155565b6000546001600160a01b031633146103e45760405162461bcd60e51b815260206004820181905260248201527f4f776e61626c653a2063616c6c6572206973206e6f7420746865206f776e65726044820152606401610dec565b6111b1611339565b600080547fffffffffffffffffffffff00ffffffffffffffffffffffffffffffffffffffff1690557f5db9ee0a495bf2e6ff9c91a7834c1ba4fdd244a5e8aa4e537bd38aeae4b073aa335b6040516001600160a01b03909116815260200160405180910390a1565b600080546001600160a01b038381167fffffffffffffffffffffffff0000000000000000000000000000000000000000831681178455604051919092169283917f8be0079c531659141344cd1fd0a4f28419497f9722a3daafe3b4186f6b6457e09190a35050565b600054600160a01b900460ff16156103e45760405162461bcd60e51b815260206004820152601060248201527f5061757361626c653a20706175736564000000000000000000000000000000006044820152606401610dec565b6112e3611281565b600080547fffffffffffffffffffffff00ffffffffffffffffffffffffffffffffffffffff16600160a01b1790557f62e78cea01bee320cd4e420270b5ea74000d11b0c9f74754ebdbfc544b05a2586111fc3390565b600054600160a01b900460ff166103e45760405162461bcd60e51b815260206004820152601460248201527f5061757361626c653a206e6f74207061757365640000000000000000000000006044820152606401610dec565b6000602082840312156113a457600080fd5b5035919050565b80356001600160a01b03811681146113c257600080fd5b919050565b600080604083850312156113da57600080fd5b6113e3836113ab565b946020939093013593505050565b60006020828403121561140357600080fd5b61140c826113ab565b9392505050565b60006020828403121561142557600080fd5b5051919050565b60006020828403121561143e57600080fd5b8151801515811461140c57600080fdfea2646970667358221220fc75479e08f47249a0014d8acea4457ed586c076f3a312bffc45d6388eb96ef864736f6c634300080d0033",
  "linkReferences": {},
  "deployedLinkReferences": {}
}