{
  "_format": "hh-sol-artifact-1",
  "contractName": "TokenSale",
  "sourceName": "contracts/TokenSale.sol",
  "abi": [
    {
      "inputs": [
        {
          "internalType": "contract IERC20",
          "name": "_DSQ",
          "type": "address"
        },
        {
          "internalType": "address",
          "name": "_owner",
          "type": "address"
        }
      ],
      "stateMutability": "nonpayable",
      "type": "constructor"
    },
    {
      "anonymous": false,
      "inputs": [
        {
          "indexed": true,
          "internalType": "address",
          "name": "purchaser",
          "type": "address"
        },
        {
          "indexed": false,
          "internalType": "uint256",
          "name": "quantity",
          "type": "uint256"
        }
      ],
      "name": "Claim",
      "type": "event"
    },
    {
      "anonymous": false,
      "inputs": [
        {
          "indexed": true,
          "internalType": "address",
          "name": "previousOwner",
          "type": "address"
        },
        {
          "indexed": true,
          "internalType": "address",
          "name": "newOwner",
          "type": "address"
        }
      ],
      "name": "OwnershipTransferred",
      "type": "event"
    },
    {
      "anonymous": false,
      "inputs": [
        {
          "indexed": true,
          "internalType": "address",
          "name": "purchaser",
          "type": "address"
        },
        {
          "indexed": false,
          "internalType": "uint256",
          "name": "quantity",
          "type": "uint256"
        },
        {
          "indexed": false,
          "internalType": "uint256",
          "name": "amountPaid",
          "type": "uint256"
        }
      ],
      "name": "Purchase",
      "type": "event"
    },
    {
      "anonymous": false,
      "inputs": [
        {
          "indexed": true,
          "internalType": "address",
          "name": "beneficiary",
          "type": "address"
        },
        {
          "indexed": false,
          "internalType": "uint256",
          "name": "quantity",
          "type": "uint256"
        }
      ],
      "name": "Refund",
      "type": "event"
    },
    {
      "anonymous": false,
      "inputs": [
        {
          "indexed": false,
          "internalType": "uint256",
          "name": "amount",
          "type": "uint256"
        }
      ],
      "name": "Retrieve",
      "type": "event"
    },
    {
      "anonymous": false,
      "inputs": [
        {
          "indexed": false,
          "internalType": "uint256",
          "name": "tokensPerWei",
          "type": "uint256"
        },
        {
          "indexed": false,
          "internalType": "uint128",
          "name": "startTime",
          "type": "uint128"
        },
        {
          "indexed": false,
          "internalType": "uint128",
          "name": "endTime",
          "type": "uint128"
        },
        {
          "indexed": false,
          "internalType": "uint128",
          "name": "tier2ClaimTime",
          "type": "uint128"
        },
        {
          "indexed": false,
          "internalType": "uint128",
          "name": "tier3ClaimTime",
          "type": "uint128"
        }
      ],
      "name": "SaleStarted",
      "type": "event"
    },
    {
      "anonymous": false,
      "inputs": [
        {
          "indexed": false,
          "internalType": "uint256",
          "name": "amount",
          "type": "uint256"
        }
      ],
      "name": "Withdrawal",
      "type": "event"
    },
    {
      "inputs": [],
      "name": "CLAIM_PERIOD",
      "outputs": [
        {
          "internalType": "uint128",
          "name": "",
          "type": "uint128"
        }
      ],
      "stateMutability": "view",
      "type": "function"
    },
    {
      "inputs": [],
      "name": "DSQ",
      "outputs": [
        {
          "internalType": "contract IERC20",
          "name": "",
          "type": "address"
        }
      ],
      "stateMutability": "view",
      "type": "function"
    },
    {
      "inputs": [],
      "name": "MAX_RAISE",
      "outputs": [
        {
          "internalType": "uint256",
          "name": "",
          "type": "uint256"
        }
      ],
      "stateMutability": "view",
      "type": "function"
    },
    {
      "inputs": [],
      "name": "MAX_TIER1_CONTRIBUTIONS",
      "outputs": [
        {
          "internalType": "uint256",
          "name": "",
          "type": "uint256"
        }
      ],
      "stateMutability": "view",
      "type": "function"
    },
    {
      "inputs": [],
      "name": "MAX_TIER2_CUMULATIVE_CONTRIBUTIONS",
      "outputs": [
        {
          "internalType": "uint256",
          "name": "",
          "type": "uint256"
        }
      ],
      "stateMutability": "view",
      "type": "function"
    },
    {
      "inputs": [],
      "name": "claim",
      "outputs": [
        {
          "internalType": "uint256",
          "name": "",
          "type": "uint256"
        }
      ],
      "stateMutability": "nonpayable",
      "type": "function"
    },
    {
      "inputs": [
        {
          "internalType": "address[]",
          "name": "_users",
          "type": "address[]"
        }
      ],
      "name": "claimFor",
      "outputs": [],
      "stateMutability": "nonpayable",
      "type": "function"
    },
    {
      "inputs": [
        {
          "internalType": "address",
          "name": "",
          "type": "address"
        }
      ],
      "name": "contributed",
      "outputs": [
        {
          "internalType": "uint256",
          "name": "",
          "type": "uint256"
        }
      ],
      "stateMutability": "view",
      "type": "function"
    },
    {
      "inputs": [],
      "name": "endTime",
      "outputs": [
        {
          "internalType": "uint128",
          "name": "",
          "type": "uint128"
        }
      ],
      "stateMutability": "view",
      "type": "function"
    },
    {
      "inputs": [],
      "name": "owner",
      "outputs": [
        {
          "internalType": "address",
          "name": "",
          "type": "address"
        }
      ],
      "stateMutability": "view",
      "type": "function"
    },
    {
      "inputs": [],
      "name": "purchase",
      "outputs": [
        {
          "internalType": "uint256",
          "name": "",
          "type": "uint256"
        }
      ],
      "stateMutability": "payable",
      "type": "function"
    },
    {
      "inputs": [],
      "name": "renounceOwnership",
      "outputs": [],
      "stateMutability": "nonpayable",
      "type": "function"
    },
    {
      "inputs": [],
      "name": "retrieve",
      "outputs": [],
      "stateMutability": "nonpayable",
      "type": "function"
    },
    {
      "inputs": [
        {
          "internalType": "uint256",
          "name": "_tokensPerWei",
          "type": "uint256"
        },
        {
          "internalType": "uint128",
          "name": "_startTime",
          "type": "uint128"
        },
        {
          "internalType": "uint128",
          "name": "_endTime",
          "type": "uint128"
        }
      ],
      "name": "startSale",
      "outputs": [],
      "stateMutability": "nonpayable",
      "type": "function"
    },
    {
      "inputs": [],
      "name": "startTime",
      "outputs": [
        {
          "internalType": "uint128",
          "name": "",
          "type": "uint128"
        }
      ],
      "stateMutability": "view",
      "type": "function"
    },
    {
      "inputs": [
        {
          "internalType": "address",
          "name": "",
          "type": "address"
        }
      ],
      "name": "tier1Pending",
      "outputs": [
        {
          "internalType": "uint256",
          "name": "",
          "type": "uint256"
        }
      ],
      "stateMutability": "view",
      "type": "function"
    },
    {
      "inputs": [],
      "name": "tier2ClaimTime",
      "outputs": [
        {
          "internalType": "uint128",
          "name": "",
          "type": "uint128"
        }
      ],
      "stateMutability": "view",
      "type": "function"
    },
    {
      "inputs": [
        {
          "internalType": "address",
          "name": "",
          "type": "address"
        }
      ],
      "name": "tier2Pending",
      "outputs": [
        {
          "internalType": "uint256",
          "name": "",
          "type": "uint256"
        }
      ],
      "stateMutability": "view",
      "type": "function"
    },
    {
      "inputs": [],
      "name": "tier3ClaimTime",
      "outputs": [
        {
          "internalType": "uint128",
          "name": "",
          "type": "uint128"
        }
      ],
      "stateMutability": "view",
      "type": "function"
    },
    {
      "inputs": [
        {
          "internalType": "address",
          "name": "",
          "type": "address"
        }
      ],
      "name": "tier3Pending",
      "outputs": [
        {
          "internalType": "uint256",
          "name": "",
          "type": "uint256"
        }
      ],
      "stateMutability": "view",
      "type": "function"
    },
    {
      "inputs": [],
      "name": "tokensPerWei",
      "outputs": [
        {
          "internalType": "uint256",
          "name": "",
          "type": "uint256"
        }
      ],
      "stateMutability": "view",
      "type": "function"
    },
    {
      "inputs": [],
      "name": "totalContribution",
      "outputs": [
        {
          "internalType": "uint256",
          "name": "",
          "type": "uint256"
        }
      ],
      "stateMutability": "view",
      "type": "function"
    },
    {
      "inputs": [
        {
          "internalType": "address",
          "name": "newOwner",
          "type": "address"
        }
      ],
      "name": "transferOwnership",
      "outputs": [],
      "stateMutability": "nonpayable",
      "type": "function"
    },
    {
      "inputs": [],
      "name": "withdraw",
      "outputs": [],
      "stateMutability": "nonpayable",
      "type": "function"
    }
  ],
  "bytecode": "0x60a06040523480156200001157600080fd5b5060405162001c8b38038062001c8b833981016040819052620000349162000129565b6200003f33620000c0565b600180556001600160a01b038216158015906200006457506001600160a01b03811615155b620000a05760405162461bcd60e51b81526020600482015260086024820152673d32b937a0b2323960c11b604482015260640160405180910390fd5b6001600160a01b038216608052620000b881620000c0565b505062000168565b600080546001600160a01b038381166001600160a01b0319831681178455604051919092169283917f8be0079c531659141344cd1fd0a4f28419497f9722a3daafe3b4186f6b6457e09190a35050565b6001600160a01b03811681146200012657600080fd5b50565b600080604083850312156200013d57600080fd5b82516200014a8162000110565b60208401519092506200015d8162000110565b809150509250929050565b608051611aeb620001a0600039600081816103bb01528181610741015281816107c301528181610a8501526112530152611aeb6000f3fe60806040526004361061018b5760003560e01c80634ccfc5c7116100d65780637c40b6531161007f578063b38aab9d11610059578063b38aab9d14610440578063bd770d3714610460578063f2fde38b1461048d57600080fd5b80637c40b653146103a95780638da5cb5b146103f5578063995c5e9d1461041357600080fd5b806364edfbf0116100b057806364edfbf01461036c578063715018a61461037457806378e979251461038957600080fd5b80634ccfc5c7146103265780634e71d92d1461033b5780635499206f1461035057600080fd5b8063279998d8116101385780633ccfd60b116101125780633ccfd60b146102c457806347393871146102d95780634796feba1461030657600080fd5b8063279998d8146102735780632e64cec1146102885780633197cbb61461029d57600080fd5b806321241dfe1161016957806321241dfe1461022557806322d60d171461023b57806325eb5b301461025157600080fd5b80630dcf4b8f14610190578063199e3c80146101b95780631edecc61146101f8575b600080fd5b34801561019c57600080fd5b506101a660095481565b6040519081526020015b60405180910390f35b3480156101c557600080fd5b506003546101e090600160801b90046001600160801b031681565b6040516001600160801b0390911681526020016101b0565b34801561020457600080fd5b506101a66102133660046117c7565b60066020526000908152604090205481565b34801561023157600080fd5b506101e061025881565b34801561024757600080fd5b506101a660045481565b34801561025d57600080fd5b5061027161026c36600461180c565b6104ad565b005b34801561027f57600080fd5b506101a661067c565b34801561029457600080fd5b50610271610691565b3480156102a957600080fd5b506002546101e090600160801b90046001600160801b031681565b3480156102d057600080fd5b50610271610820565b3480156102e557600080fd5b506101a66102f43660046117c7565b60076020526000908152604090205481565b34801561031257600080fd5b506003546101e0906001600160801b031681565b34801561033257600080fd5b506101a661089f565b34801561034757600080fd5b506101a66108c3565b34801561035c57600080fd5b506101a6670de0b6b3a764000081565b6101a6610aef565b34801561038057600080fd5b50610271610f97565b34801561039557600080fd5b506002546101e0906001600160801b031681565b3480156103b557600080fd5b506103dd7f000000000000000000000000000000000000000000000000000000000000000081565b6040516001600160a01b0390911681526020016101b0565b34801561040157600080fd5b506000546001600160a01b03166103dd565b34801561041f57600080fd5b506101a661042e3660046117c7565b60056020526000908152604090205481565b34801561044c57600080fd5b5061027161045b366004611848565b610fa9565b34801561046c57600080fd5b506101a661047b3660046117c7565b60086020526000908152604090205481565b34801561049957600080fd5b506102716104a83660046117c7565b6112f3565b6104b5611383565b6002546001600160801b0316156105135760405162461bcd60e51b815260206004820152600760248201527f537461727465640000000000000000000000000000000000000000000000000060448201526064015b60405180910390fd5b816001600160801b0316816001600160801b031611801561053c575042826001600160801b0316115b6105885760405162461bcd60e51b815260206004820152600560248201527f4461746573000000000000000000000000000000000000000000000000000000604482015260640161050a565b60048390556001600160801b03818116600160801b02908316176002556105b1610258826118ec565b600380547fffffffffffffffffffffffffffffffff00000000000000000000000000000000166001600160801b03929092169190911790556105f66102586002611917565b61060090826118ec565b600380546001600160801b03928316600160801b9081029184168281179384905560408051898152888716602082015287871681830152938616909117606084015292049092166080830152517f592d88bff8edc7bf8b34d50b282ed04379b1b005ec5949cb5c690285ca46ed879181900360a00190a1505050565b61068e670de0b6b3a764000080611946565b81565b610699611383565b6003546106b99061025890600160801b90046001600160801b03166118ec565b6001600160801b031642116107105760405162461bcd60e51b815260206004820152600760248201527f4f6e676f696e6700000000000000000000000000000000000000000000000000604482015260640161050a565b6040517f70a082310000000000000000000000000000000000000000000000000000000081523060048201526000907f00000000000000000000000000000000000000000000000000000000000000006001600160a01b0316906370a0823190602401602060405180830381865afa158015610790573d6000803e3d6000fd5b505050506040513d601f19601f820116820180604052508101906107b4919061195e565b90506107ea6001600160a01b037f00000000000000000000000000000000000000000000000000000000000000001633836113dd565b6040518181527f7168014d1f0220e0c6fc272f854655453b451835dda3695efdae92ce86fcba6c9060200160405180910390a150565b610828611383565b610830611462565b6040514790339082156108fc029083906000818181858888f1935050505015801561085f573d6000803e3d6000fd5b506040518181527f4e70a604b23a8edee2b1d0a656e9b9c00b73ad8bb1afc2c59381ee9f69197de79060200160405180910390a15061089d60018055565b565b6108b1670de0b6b3a764000080611946565b61068e90670de0b6b3a7640000611946565b60006108cd611462565b600354600090600160801b90046001600160801b031642111561094f5733600090815260086020908152604080832054600783528184205460069093529220546109179190611946565b6109219190611946565b3360009081526006602090815260408083208390556007825280832083905560089091528120559050610a28565b6003546001600160801b03164211156109ac57336000908152600760209081526040808320546006909252909120546109889190611946565b33600090815260066020908152604080832083905560079091528120559050610a28565b600254600160801b90046001600160801b03164211156109e057503360009081526006602052604081208054919055610a28565b60405162461bcd60e51b815260206004820152600560248201527f5068617365000000000000000000000000000000000000000000000000000000604482015260640161050a565b60008111610a785760405162461bcd60e51b815260206004820152600960248201527f4e6f50656e64696e670000000000000000000000000000000000000000000000604482015260640161050a565b610aac6001600160a01b037f00000000000000000000000000000000000000000000000000000000000000001633836113dd565b60405181815233907f47cee97cb7acd717b3c0aa1435d004cd5b3c8c57d70dbceb4e4458bbd60e39d49060200160405180910390a29050610aec60018055565b90565b6000610af9611462565b333214610b4a5760405162461bcd60e51b815260040161050a9060208082526004908201527f21454f4100000000000000000000000000000000000000000000000000000000604082015260600190565b6002546001600160801b031642118015610b6e57506002546001600160801b031615155b610bba5760405162461bcd60e51b815260206004820152600b60248201527f4e6f742053746172746564000000000000000000000000000000000000000000604482015260640161050a565b600254600160801b90046001600160801b03164210610c1b5760405162461bcd60e51b815260206004820152600960248201527f53616c65204f7665720000000000000000000000000000000000000000000000604482015260640161050a565b60003411610c6b5760405162461bcd60e51b815260206004820152600660248201527f416d6f756e740000000000000000000000000000000000000000000000000000604482015260640161050a565b600954610c80670de0b6b3a764000080611946565b610c9290670de0b6b3a7640000611946565b8110610ce05760405162461bcd60e51b815260206004820152600860248201527f53616c65204d6178000000000000000000000000000000000000000000000000604482015260640161050a565b6004546000610cf7670de0b6b3a764000080611946565b610d0990670de0b6b3a7640000611946565b610d133485611946565b11610d1e5734610d4d565b82610d31670de0b6b3a764000080611946565b610d4390670de0b6b3a7640000611946565b610d4d9190611977565b90506000610d5b838361198e565b90506000670de0b6b3a7640000851015610d8f57610d8a83610d8587670de0b6b3a7640000611977565b6114bb565b610d92565b60005b90506000610da8670de0b6b3a764000080611946565b861015610de957610de4610dbc8386611977565b8388610dd0670de0b6b3a764000080611946565b610dda9190611977565b610d859190611977565b610dec565b60005b9050600081610dfb8487611977565b610e059190611977565b9050610e11868461198e565b3360009081526006602052604081208054909190610e30908490611946565b90915550610e409050868361198e565b3360009081526007602052604081208054909190610e5f908490611946565b90915550610e6f9050868261198e565b3360009081526008602052604081208054909190610e8e908490611946565b90915550503360009081526005602052604081208054879290610eb2908490611946565b925050819055508460096000828254610ecb9190611946565b9091555060009050610edd8634611977565b90508015610f4957604051339082156108fc029083906000818181858888f19350505050158015610f12573d6000803e3d6000fd5b5060405181815233907fbb28353e4598c3b9199101a66e0989549b659a59a54d2c27fbb183f1932c8e6d9060200160405180910390a25b604080518681526020810188905233917f12cb4648cf3058b17ceeb33e579f8b0bc269fe0843f3900b8e24b6c54871703c910160405180910390a250929650505050505050610aec60018055565b610f9f611383565b61089d60006114d3565b610fb1611383565b600354610fd19061025890600160801b90046001600160801b03166118ec565b6001600160801b031642116110285760405162461bcd60e51b815260206004820152600760248201527f4f6e676f696e6700000000000000000000000000000000000000000000000000604482015260640161050a565b8060005b818110156112ed5760006008600086868581811061104c5761104c6119cb565b905060200201602081019061106191906117c7565b6001600160a01b03166001600160a01b031681526020019081526020016000205460076000878786818110611098576110986119cb565b90506020020160208101906110ad91906117c7565b6001600160a01b03166001600160a01b0316815260200190815260200160002054600660008888878181106110e4576110e46119cb565b90506020020160208101906110f991906117c7565b6001600160a01b03166001600160a01b03168152602001908152602001600020546111249190611946565b61112e9190611946565b905080156112e45760006006600087878681811061114e5761114e6119cb565b905060200201602081019061116391906117c7565b6001600160a01b03166001600160a01b031681526020019081526020016000208190555060006007600087878681811061119f5761119f6119cb565b90506020020160208101906111b491906117c7565b6001600160a01b03166001600160a01b03168152602001908152602001600020819055506000600860008787868181106111f0576111f06119cb565b905060200201602081019061120591906117c7565b6001600160a01b0316815260208101919091526040016000205561127a858584818110611234576112346119cb565b905060200201602081019061124991906117c7565b6001600160a01b037f00000000000000000000000000000000000000000000000000000000000000001690836113dd565b84848381811061128c5761128c6119cb565b90506020020160208101906112a191906117c7565b6001600160a01b03167f47cee97cb7acd717b3c0aa1435d004cd5b3c8c57d70dbceb4e4458bbd60e39d4826040516112db91815260200190565b60405180910390a25b5060010161102c565b50505050565b6112fb611383565b6001600160a01b0381166113775760405162461bcd60e51b815260206004820152602660248201527f4f776e61626c653a206e6577206f776e657220697320746865207a65726f206160448201527f6464726573730000000000000000000000000000000000000000000000000000606482015260840161050a565b611380816114d3565b50565b6000546001600160a01b0316331461089d5760405162461bcd60e51b815260206004820181905260248201527f4f776e61626c653a2063616c6c6572206973206e6f7420746865206f776e6572604482015260640161050a565b604080516001600160a01b038416602482015260448082018490528251808303909101815260649091019091526020810180517bffffffffffffffffffffffffffffffffffffffffffffffffffffffff167fa9059cbb0000000000000000000000000000000000000000000000000000000017905261145d90849061153b565b505050565b6002600154036114b45760405162461bcd60e51b815260206004820152601f60248201527f5265656e7472616e637947756172643a207265656e7472616e742063616c6c00604482015260640161050a565b6002600155565b60008183106114ca57816114cc565b825b9392505050565b600080546001600160a01b038381167fffffffffffffffffffffffff0000000000000000000000000000000000000000831681178455604051919092169283917f8be0079c531659141344cd1fd0a4f28419497f9722a3daafe3b4186f6b6457e09190a35050565b6000611590826040518060400160405280602081526020017f5361666545524332303a206c6f772d6c6576656c2063616c6c206661696c6564815250856001600160a01b03166116209092919063ffffffff16565b80519091501561145d57808060200190518101906115ae91906119fa565b61145d5760405162461bcd60e51b815260206004820152602a60248201527f5361666545524332303a204552433230206f7065726174696f6e20646964206e60448201527f6f74207375636365656400000000000000000000000000000000000000000000606482015260840161050a565b606061162f8484600085611637565b949350505050565b6060824710156116af5760405162461bcd60e51b815260206004820152602660248201527f416464726573733a20696e73756666696369656e742062616c616e636520666f60448201527f722063616c6c0000000000000000000000000000000000000000000000000000606482015260840161050a565b600080866001600160a01b031685876040516116cb9190611a48565b60006040518083038185875af1925050503d8060008114611708576040519150601f19603f3d011682016040523d82523d6000602084013e61170d565b606091505b509150915061171e87838387611729565b979650505050505050565b60608315611798578251600003611791576001600160a01b0385163b6117915760405162461bcd60e51b815260206004820152601d60248201527f416464726573733a2063616c6c20746f206e6f6e2d636f6e7472616374000000604482015260640161050a565b508161162f565b61162f83838151156117ad5781518083602001fd5b8060405162461bcd60e51b815260040161050a9190611a64565b6000602082840312156117d957600080fd5b81356001600160a01b03811681146114cc57600080fd5b80356001600160801b038116811461180757600080fd5b919050565b60008060006060848603121561182157600080fd5b83359250611831602085016117f0565b915061183f604085016117f0565b90509250925092565b6000806020838503121561185b57600080fd5b823567ffffffffffffffff8082111561187357600080fd5b818501915085601f83011261188757600080fd5b81358181111561189657600080fd5b8660208260051b85010111156118ab57600080fd5b60209290920196919550909350505050565b7f4e487b7100000000000000000000000000000000000000000000000000000000600052601160045260246000fd5b60006001600160801b0380831681851680830382111561190e5761190e6118bd565b01949350505050565b60006001600160801b038083168185168183048111821515161561193d5761193d6118bd565b02949350505050565b60008219821115611959576119596118bd565b500190565b60006020828403121561197057600080fd5b5051919050565b600082821015611989576119896118bd565b500390565b6000817fffffffffffffffffffffffffffffffffffffffffffffffffffffffffffffffff04831182151516156119c6576119c66118bd565b500290565b7f4e487b7100000000000000000000000000000000000000000000000000000000600052603260045260246000fd5b600060208284031215611a0c57600080fd5b815180151581146114cc57600080fd5b60005b83811015611a37578181015183820152602001611a1f565b838111156112ed5750506000910152565b60008251611a5a818460208701611a1c565b9190910192915050565b6020815260008251806020840152611a83816040850160208701611a1c565b601f017fffffffffffffffffffffffffffffffffffffffffffffffffffffffffffffffe016919091016040019291505056fea2646970667358221220b6fa3f90bfca42dd761b90c3246b49d22bfa4cd1fc3c31889c64b81b640b3a1964736f6c634300080d0033",
  "linkReferences": {},
  "deployedLinkReferences": {}
}