{
  "_format": "hh-sol-artifact-1",
  "contractName": "VaultV0",
  "sourceName": "contracts/VaultV0.sol",
  "abi": [
    {
      "inputs": [
        {
          "internalType": "contract ERC20",
          "name": "_asset",
          "type": "address"
        },
        {
          "internalType": "string",
          "name": "_name",
          "type": "string"
        },
        {
          "internalType": "string",
          "name": "_symbol",
          "type": "string"
        },
        {
          "internalType": "address",
          "name": "_trader",
          "type": "address"
        },
        {
          "internalType": "uint256",
          "name": "_maxDeposits",
          "type": "uint256"
        }
      ],
      "stateMutability": "nonpayable",
      "type": "constructor"
    },
    {
      "anonymous": false,
      "inputs": [
        {
          "indexed": true,
          "internalType": "address",
          "name": "owner",
          "type": "address"
        },
        {
          "indexed": true,
          "internalType": "address",
          "name": "spender",
          "type": "address"
        },
        {
          "indexed": false,
          "internalType": "uint256",
          "name": "amount",
          "type": "uint256"
        }
      ],
      "name": "Approval",
      "type": "event"
    },
    {
      "anonymous": false,
      "inputs": [
        {
          "indexed": true,
          "internalType": "address",
          "name": "caller",
          "type": "address"
        },
        {
          "indexed": true,
          "internalType": "address",
          "name": "owner",
          "type": "address"
        },
        {
          "indexed": false,
          "internalType": "uint256",
          "name": "assets",
          "type": "uint256"
        },
        {
          "indexed": false,
          "internalType": "uint256",
          "name": "shares",
          "type": "uint256"
        }
      ],
      "name": "Deposit",
      "type": "event"
    },
    {
      "anonymous": false,
      "inputs": [
        {
          "indexed": true,
          "internalType": "uint256",
          "name": "epoch",
          "type": "uint256"
        },
        {
          "indexed": false,
          "internalType": "uint256",
          "name": "fundingStart",
          "type": "uint256"
        },
        {
          "indexed": false,
          "internalType": "uint256",
          "name": "epochStart",
          "type": "uint256"
        },
        {
          "indexed": false,
          "internalType": "uint256",
          "name": "epochEnd",
          "type": "uint256"
        }
      ],
      "name": "EpochStarted",
      "type": "event"
    },
    {
      "anonymous": false,
      "inputs": [
        {
          "indexed": true,
          "internalType": "uint256",
          "name": "epoch",
          "type": "uint256"
        },
        {
          "indexed": false,
          "internalType": "uint256",
          "name": "amount",
          "type": "uint256"
        }
      ],
      "name": "FundsCustodied",
      "type": "event"
    },
    {
      "anonymous": false,
      "inputs": [
        {
          "indexed": true,
          "internalType": "uint256",
          "name": "epoch",
          "type": "uint256"
        },
        {
          "indexed": false,
          "internalType": "uint256",
          "name": "amount",
          "type": "uint256"
        }
      ],
      "name": "FundsReturned",
      "type": "event"
    },
    {
      "anonymous": false,
      "inputs": [
        {
          "indexed": false,
          "internalType": "uint256",
          "name": "oldMax",
          "type": "uint256"
        },
        {
          "indexed": false,
          "internalType": "uint256",
          "name": "newMax",
          "type": "uint256"
        }
      ],
      "name": "NewMaxDeposits",
      "type": "event"
    },
    {
      "anonymous": false,
      "inputs": [
        {
          "indexed": true,
          "internalType": "address",
          "name": "user",
          "type": "address"
        },
        {
          "indexed": false,
          "internalType": "bool",
          "name": "status",
          "type": "bool"
        }
      ],
      "name": "NewWhitelistStatus",
      "type": "event"
    },
    {
      "anonymous": false,
      "inputs": [
        {
          "indexed": true,
          "internalType": "address",
          "name": "previousOwner",
          "type": "address"
        },
        {
          "indexed": true,
          "internalType": "address",
          "name": "newOwner",
          "type": "address"
        }
      ],
      "name": "OwnershipTransferred",
      "type": "event"
    },
    {
      "anonymous": false,
      "inputs": [
        {
          "indexed": true,
          "internalType": "address",
          "name": "from",
          "type": "address"
        },
        {
          "indexed": true,
          "internalType": "address",
          "name": "to",
          "type": "address"
        },
        {
          "indexed": false,
          "internalType": "uint256",
          "name": "amount",
          "type": "uint256"
        }
      ],
      "name": "Transfer",
      "type": "event"
    },
    {
      "anonymous": false,
      "inputs": [
        {
          "indexed": true,
          "internalType": "address",
          "name": "caller",
          "type": "address"
        },
        {
          "indexed": true,
          "internalType": "address",
          "name": "receiver",
          "type": "address"
        },
        {
          "indexed": true,
          "internalType": "address",
          "name": "owner",
          "type": "address"
        },
        {
          "indexed": false,
          "internalType": "uint256",
          "name": "assets",
          "type": "uint256"
        },
        {
          "indexed": false,
          "internalType": "uint256",
          "name": "shares",
          "type": "uint256"
        }
      ],
      "name": "Withdraw",
      "type": "event"
    },
    {
      "inputs": [],
      "name": "DOMAIN_SEPARATOR",
      "outputs": [
        {
          "internalType": "bytes32",
          "name": "",
          "type": "bytes32"
        }
      ],
      "stateMutability": "view",
      "type": "function"
    },
    {
      "inputs": [],
      "name": "MAX_EPOCH_DURATION",
      "outputs": [
        {
          "internalType": "uint256",
          "name": "",
          "type": "uint256"
        }
      ],
      "stateMutability": "view",
      "type": "function"
    },
    {
      "inputs": [],
      "name": "MIN_FUNDING_DURATION",
      "outputs": [
        {
          "internalType": "uint256",
          "name": "",
          "type": "uint256"
        }
      ],
      "stateMutability": "view",
      "type": "function"
    },
    {
      "inputs": [
        {
          "internalType": "address",
          "name": "",
          "type": "address"
        },
        {
          "internalType": "address",
          "name": "",
          "type": "address"
        }
      ],
      "name": "allowance",
      "outputs": [
        {
          "internalType": "uint256",
          "name": "",
          "type": "uint256"
        }
      ],
      "stateMutability": "view",
      "type": "function"
    },
    {
      "inputs": [
        {
          "internalType": "address",
          "name": "spender",
          "type": "address"
        },
        {
          "internalType": "uint256",
          "name": "amount",
          "type": "uint256"
        }
      ],
      "name": "approve",
      "outputs": [
        {
          "internalType": "bool",
          "name": "",
          "type": "bool"
        }
      ],
      "stateMutability": "nonpayable",
      "type": "function"
    },
    {
      "inputs": [],
      "name": "asset",
      "outputs": [
        {
          "internalType": "contract ERC20",
          "name": "",
          "type": "address"
        }
      ],
      "stateMutability": "view",
      "type": "function"
    },
    {
      "inputs": [
        {
          "internalType": "address",
          "name": "",
          "type": "address"
        }
      ],
      "name": "balanceOf",
      "outputs": [
        {
          "internalType": "uint256",
          "name": "",
          "type": "uint256"
        }
      ],
      "stateMutability": "view",
      "type": "function"
    },
    {
      "inputs": [
        {
          "internalType": "uint256",
          "name": "shares",
          "type": "uint256"
        }
      ],
      "name": "convertToAssets",
      "outputs": [
        {
          "internalType": "uint256",
          "name": "",
          "type": "uint256"
        }
      ],
      "stateMutability": "view",
      "type": "function"
    },
    {
      "inputs": [
        {
          "internalType": "uint256",
          "name": "assets",
          "type": "uint256"
        }
      ],
      "name": "convertToShares",
      "outputs": [
        {
          "internalType": "uint256",
          "name": "",
          "type": "uint256"
        }
      ],
      "stateMutability": "view",
      "type": "function"
    },
    {
      "inputs": [],
      "name": "custodied",
      "outputs": [
        {
          "internalType": "bool",
          "name": "",
          "type": "bool"
        }
      ],
      "stateMutability": "view",
      "type": "function"
    },
    {
      "inputs": [],
      "name": "custodiedAmount",
      "outputs": [
        {
          "internalType": "uint256",
          "name": "",
          "type": "uint256"
        }
      ],
      "stateMutability": "view",
      "type": "function"
    },
    {
      "inputs": [],
      "name": "custodyFunds",
      "outputs": [],
      "stateMutability": "nonpayable",
      "type": "function"
    },
    {
      "inputs": [],
      "name": "decimals",
      "outputs": [
        {
          "internalType": "uint8",
          "name": "",
          "type": "uint8"
        }
      ],
      "stateMutability": "view",
      "type": "function"
    },
    {
      "inputs": [
        {
          "internalType": "uint256",
          "name": "assets",
          "type": "uint256"
        },
        {
          "internalType": "address",
          "name": "receiver",
          "type": "address"
        }
      ],
      "name": "deposit",
      "outputs": [
        {
          "internalType": "uint256",
          "name": "",
          "type": "uint256"
        }
      ],
      "stateMutability": "nonpayable",
      "type": "function"
    },
    {
      "inputs": [
        {
          "internalType": "uint256",
          "name": "",
          "type": "uint256"
        }
      ],
      "name": "epochs",
      "outputs": [
        {
          "internalType": "uint256",
          "name": "fundingStart",
          "type": "uint256"
        },
        {
          "internalType": "uint256",
          "name": "epochStart",
          "type": "uint256"
        },
        {
          "internalType": "uint256",
          "name": "epochEnd",
          "type": "uint256"
        }
      ],
      "stateMutability": "view",
      "type": "function"
    },
    {
      "inputs": [],
      "name": "getCurrentEpoch",
      "outputs": [
        {
          "internalType": "uint256",
          "name": "",
          "type": "uint256"
        }
      ],
      "stateMutability": "view",
      "type": "function"
    },
    {
      "inputs": [],
      "name": "getCurrentEpochInfo",
      "outputs": [
        {
          "components": [
            {
              "internalType": "uint256",
              "name": "fundingStart",
              "type": "uint256"
            },
            {
              "internalType": "uint256",
              "name": "epochStart",
              "type": "uint256"
            },
            {
              "internalType": "uint256",
              "name": "epochEnd",
              "type": "uint256"
            }
          ],
          "internalType": "struct VaultV0.Epoch",
          "name": "",
          "type": "tuple"
        }
      ],
      "stateMutability": "view",
      "type": "function"
    },
    {
      "inputs": [],
      "name": "isFunding",
      "outputs": [
        {
          "internalType": "bool",
          "name": "",
          "type": "bool"
        }
      ],
      "stateMutability": "view",
      "type": "function"
    },
    {
      "inputs": [],
      "name": "isInEpoch",
      "outputs": [
        {
          "internalType": "bool",
          "name": "",
          "type": "bool"
        }
      ],
      "stateMutability": "view",
      "type": "function"
    },
    {
      "inputs": [
        {
          "internalType": "address",
          "name": "",
          "type": "address"
        }
      ],
      "name": "maxDeposit",
      "outputs": [
        {
          "internalType": "uint256",
          "name": "",
          "type": "uint256"
        }
      ],
      "stateMutability": "view",
      "type": "function"
    },
    {
      "inputs": [],
      "name": "maxDeposits",
      "outputs": [
        {
          "internalType": "uint256",
          "name": "",
          "type": "uint256"
        }
      ],
      "stateMutability": "view",
      "type": "function"
    },
    {
      "inputs": [
        {
          "internalType": "address",
          "name": "",
          "type": "address"
        }
      ],
      "name": "maxMint",
      "outputs": [
        {
          "internalType": "uint256",
          "name": "",
          "type": "uint256"
        }
      ],
      "stateMutability": "view",
      "type": "function"
    },
    {
      "inputs": [
        {
          "internalType": "address",
          "name": "owner",
          "type": "address"
        }
      ],
      "name": "maxRedeem",
      "outputs": [
        {
          "internalType": "uint256",
          "name": "",
          "type": "uint256"
        }
      ],
      "stateMutability": "view",
      "type": "function"
    },
    {
      "inputs": [
        {
          "internalType": "address",
          "name": "owner",
          "type": "address"
        }
      ],
      "name": "maxWithdraw",
      "outputs": [
        {
          "internalType": "uint256",
          "name": "",
          "type": "uint256"
        }
      ],
      "stateMutability": "view",
      "type": "function"
    },
    {
      "inputs": [
        {
          "internalType": "uint256",
          "name": "shares",
          "type": "uint256"
        },
        {
          "internalType": "address",
          "name": "receiver",
          "type": "address"
        }
      ],
      "name": "mint",
      "outputs": [
        {
          "internalType": "uint256",
          "name": "",
          "type": "uint256"
        }
      ],
      "stateMutability": "nonpayable",
      "type": "function"
    },
    {
      "inputs": [],
      "name": "name",
      "outputs": [
        {
          "internalType": "string",
          "name": "",
          "type": "string"
        }
      ],
      "stateMutability": "view",
      "type": "function"
    },
    {
      "inputs": [
        {
          "internalType": "address",
          "name": "",
          "type": "address"
        }
      ],
      "name": "nonces",
      "outputs": [
        {
          "internalType": "uint256",
          "name": "",
          "type": "uint256"
        }
      ],
      "stateMutability": "view",
      "type": "function"
    },
    {
      "inputs": [],
      "name": "owner",
      "outputs": [
        {
          "internalType": "address",
          "name": "",
          "type": "address"
        }
      ],
      "stateMutability": "view",
      "type": "function"
    },
    {
      "inputs": [
        {
          "internalType": "address",
          "name": "owner",
          "type": "address"
        },
        {
          "internalType": "address",
          "name": "spender",
          "type": "address"
        },
        {
          "internalType": "uint256",
          "name": "value",
          "type": "uint256"
        },
        {
          "internalType": "uint256",
          "name": "deadline",
          "type": "uint256"
        },
        {
          "internalType": "uint8",
          "name": "v",
          "type": "uint8"
        },
        {
          "internalType": "bytes32",
          "name": "r",
          "type": "bytes32"
        },
        {
          "internalType": "bytes32",
          "name": "s",
          "type": "bytes32"
        }
      ],
      "name": "permit",
      "outputs": [],
      "stateMutability": "nonpayable",
      "type": "function"
    },
    {
      "inputs": [
        {
          "internalType": "uint256",
          "name": "assets",
          "type": "uint256"
        }
      ],
      "name": "previewDeposit",
      "outputs": [
        {
          "internalType": "uint256",
          "name": "",
          "type": "uint256"
        }
      ],
      "stateMutability": "view",
      "type": "function"
    },
    {
      "inputs": [
        {
          "internalType": "uint256",
          "name": "shares",
          "type": "uint256"
        }
      ],
      "name": "previewMint",
      "outputs": [
        {
          "internalType": "uint256",
          "name": "",
          "type": "uint256"
        }
      ],
      "stateMutability": "view",
      "type": "function"
    },
    {
      "inputs": [
        {
          "internalType": "uint256",
          "name": "shares",
          "type": "uint256"
        }
      ],
      "name": "previewRedeem",
      "outputs": [
        {
          "internalType": "uint256",
          "name": "",
          "type": "uint256"
        }
      ],
      "stateMutability": "view",
      "type": "function"
    },
    {
      "inputs": [
        {
          "internalType": "uint256",
          "name": "assets",
          "type": "uint256"
        }
      ],
      "name": "previewWithdraw",
      "outputs": [
        {
          "internalType": "uint256",
          "name": "",
          "type": "uint256"
        }
      ],
      "stateMutability": "view",
      "type": "function"
    },
    {
      "inputs": [
        {
          "internalType": "uint256",
          "name": "shares",
          "type": "uint256"
        },
        {
          "internalType": "address",
          "name": "receiver",
          "type": "address"
        },
        {
          "internalType": "address",
          "name": "_owner",
          "type": "address"
        }
      ],
      "name": "redeem",
      "outputs": [
        {
          "internalType": "uint256",
          "name": "",
          "type": "uint256"
        }
      ],
      "stateMutability": "nonpayable",
      "type": "function"
    },
    {
      "inputs": [],
      "name": "renounceOwnership",
      "outputs": [],
      "stateMutability": "nonpayable",
      "type": "function"
    },
    {
      "inputs": [
        {
          "internalType": "uint256",
          "name": "_amount",
          "type": "uint256"
        }
      ],
      "name": "returnFunds",
      "outputs": [],
      "stateMutability": "nonpayable",
      "type": "function"
    },
    {
      "inputs": [
        {
          "internalType": "uint256",
          "name": "_newMax",
          "type": "uint256"
        }
      ],
      "name": "setMaxDeposits",
      "outputs": [],
      "stateMutability": "nonpayable",
      "type": "function"
    },
    {
      "inputs": [
        {
          "internalType": "address",
          "name": "_user",
          "type": "address"
        },
        {
          "internalType": "bool",
          "name": "_status",
          "type": "bool"
        }
      ],
      "name": "setWhitelistStatus",
      "outputs": [],
      "stateMutability": "nonpayable",
      "type": "function"
    },
    {
      "inputs": [
        {
          "internalType": "address[]",
          "name": "_users",
          "type": "address[]"
        },
        {
          "internalType": "bool[]",
          "name": "_statuses",
          "type": "bool[]"
        }
      ],
      "name": "setWhitelistStatuses",
      "outputs": [],
      "stateMutability": "nonpayable",
      "type": "function"
    },
    {
      "inputs": [
        {
          "internalType": "uint256",
          "name": "_fundingStart",
          "type": "uint256"
        },
        {
          "internalType": "uint256",
          "name": "_epochStart",
          "type": "uint256"
        },
        {
          "internalType": "uint256",
          "name": "_epochEnd",
          "type": "uint256"
        }
      ],
      "name": "startEpoch",
      "outputs": [],
      "stateMutability": "nonpayable",
      "type": "function"
    },
    {
      "inputs": [],
      "name": "started",
      "outputs": [
        {
          "internalType": "bool",
          "name": "",
          "type": "bool"
        }
      ],
      "stateMutability": "view",
      "type": "function"
    },
    {
      "inputs": [],
      "name": "symbol",
      "outputs": [
        {
          "internalType": "string",
          "name": "",
          "type": "string"
        }
      ],
      "stateMutability": "view",
      "type": "function"
    },
    {
      "inputs": [],
      "name": "totalAssets",
      "outputs": [
        {
          "internalType": "uint256",
          "name": "",
          "type": "uint256"
        }
      ],
      "stateMutability": "view",
      "type": "function"
    },
    {
      "inputs": [],
      "name": "totalDeposits",
      "outputs": [
        {
          "internalType": "uint256",
          "name": "",
          "type": "uint256"
        }
      ],
      "stateMutability": "view",
      "type": "function"
    },
    {
      "inputs": [],
      "name": "totalSupply",
      "outputs": [
        {
          "internalType": "uint256",
          "name": "",
          "type": "uint256"
        }
      ],
      "stateMutability": "view",
      "type": "function"
    },
    {
      "inputs": [],
      "name": "trader",
      "outputs": [
        {
          "internalType": "address",
          "name": "",
          "type": "address"
        }
      ],
      "stateMutability": "view",
      "type": "function"
    },
    {
      "inputs": [
        {
          "internalType": "address",
          "name": "to",
          "type": "address"
        },
        {
          "internalType": "uint256",
          "name": "amount",
          "type": "uint256"
        }
      ],
      "name": "transfer",
      "outputs": [
        {
          "internalType": "bool",
          "name": "",
          "type": "bool"
        }
      ],
      "stateMutability": "nonpayable",
      "type": "function"
    },
    {
      "inputs": [
        {
          "internalType": "address",
          "name": "from",
          "type": "address"
        },
        {
          "internalType": "address",
          "name": "to",
          "type": "address"
        },
        {
          "internalType": "uint256",
          "name": "amount",
          "type": "uint256"
        }
      ],
      "name": "transferFrom",
      "outputs": [
        {
          "internalType": "bool",
          "name": "",
          "type": "bool"
        }
      ],
      "stateMutability": "nonpayable",
      "type": "function"
    },
    {
      "inputs": [
        {
          "internalType": "address",
          "name": "newOwner",
          "type": "address"
        }
      ],
      "name": "transferOwnership",
      "outputs": [],
      "stateMutability": "nonpayable",
      "type": "function"
    },
    {
      "inputs": [
        {
          "internalType": "address",
          "name": "",
          "type": "address"
        }
      ],
      "name": "whitelisted",
      "outputs": [
        {
          "internalType": "bool",
          "name": "",
          "type": "bool"
        }
      ],
      "stateMutability": "view",
      "type": "function"
    },
    {
      "inputs": [
        {
          "internalType": "uint256",
          "name": "assets",
          "type": "uint256"
        },
        {
          "internalType": "address",
          "name": "receiver",
          "type": "address"
        },
        {
          "internalType": "address",
          "name": "_owner",
          "type": "address"
        }
      ],
      "name": "withdraw",
      "outputs": [
        {
          "internalType": "uint256",
          "name": "",
          "type": "uint256"
        }
      ],
      "stateMutability": "nonpayable",
      "type": "function"
    }
  ],
  "bytecode": "0x6101206040523480156200001257600080fd5b50604051620031b8380380620031b88339810160408190526200003591620003df565b8484848181846001600160a01b031663313ce5676040518163ffffffff1660e01b8152600401602060405180830381865afa15801562000079573d6000803e3d6000fd5b505050506040513d601f19601f820116820180604052508101906200009f91906200047f565b8251620000b490600090602086019062000253565b508151620000ca90600190602085019062000253565b5060ff81166080524660a052620000e062000165565b60c052505050506001600160a01b039190911660e05250620001023362000201565b6001600160a01b038216620001495760405162461bcd60e51b815260206004820152600960248201526810bd32b937a0b2323960b91b604482015260640160405180910390fd5b6001600160a01b0390911661010052600b55506200058a915050565b60007f8b73c3c69bb8fe3d512ecc4cf759cc79239f7b179b0ffacaa9a75d522b39400f6000604051620001999190620004e7565b6040805191829003822060208301939093528101919091527fc89efdaa54c0f20c7adf612882df0950f5a951637e0307cdcb4c672f298b8bc660608201524660808201523060a082015260c00160405160208183030381529060405280519060200120905090565b600680546001600160a01b038381166001600160a01b0319831681179093556040519116919082907f8be0079c531659141344cd1fd0a4f28419497f9722a3daafe3b4186f6b6457e090600090a35050565b8280546200026190620004ab565b90600052602060002090601f016020900481019282620002855760008555620002d0565b82601f10620002a057805160ff1916838001178555620002d0565b82800160010185558215620002d0579182015b82811115620002d0578251825591602001919060010190620002b3565b50620002de929150620002e2565b5090565b5b80821115620002de5760008155600101620002e3565b6001600160a01b03811681146200030f57600080fd5b50565b634e487b7160e01b600052604160045260246000fd5b600082601f8301126200033a57600080fd5b81516001600160401b038082111562000357576200035762000312565b604051601f8301601f19908116603f0116810190828211818310171562000382576200038262000312565b816040528381526020925086838588010111156200039f57600080fd5b600091505b83821015620003c35785820183015181830184015290820190620003a4565b83821115620003d55760008385830101525b9695505050505050565b600080600080600060a08688031215620003f857600080fd5b85516200040581620002f9565b60208701519095506001600160401b03808211156200042357600080fd5b6200043189838a0162000328565b955060408801519150808211156200044857600080fd5b50620004578882890162000328565b93505060608601516200046a81620002f9565b80925050608086015190509295509295909350565b6000602082840312156200049257600080fd5b815160ff81168114620004a457600080fd5b9392505050565b600181811c90821680620004c057607f821691505b602082108103620004e157634e487b7160e01b600052602260045260246000fd5b50919050565b600080835481600182811c9150808316806200050457607f831692505b602080841082036200052457634e487b7160e01b86526022600452602486fd5b8180156200053b57600181146200054d576200057c565b60ff198616895284890196506200057c565b60008a81526020902060005b86811015620005745781548b82015290850190830162000559565b505084890196505b509498975050505050505050565b60805160a05160c05160e05161010051612b9c6200061c6000396000818161040501528181610e1e01528181610f6101528181611b030152611cf20152600081816104ca0152818161082f01528181610f3f01528181611cd00152818161204f015281816121550152818161232c015261248a01526000610dae01526000610d7e015260006104800152612b9c6000f3fe608060405234801561001057600080fd5b50600436106103405760003560e01c8063715018a6116101bd578063babc394f116100f9578063d905777e116100a2578063dd62ed3e1161007c578063dd62ed3e1461074d578063ef8b30f714610778578063f2fde38b1461078b578063fde7a9411461079e57600080fd5b8063d905777e146106f8578063d936547e14610721578063d9cd2bcc1461074457600080fd5b8063c6e6f592116100d3578063c6e6f592146106bf578063ce96cb77146106d2578063d505accf146106e557600080fd5b8063babc394f14610638578063c63d75b614610662578063c6b61e4c1461067557600080fd5b806394bf804d11610166578063b3d7f6b911610140578063b3d7f6b9146105f7578063b460af941461060a578063b97dd9e21461061d578063ba0876521461062557600080fd5b806394bf804d146105c957806395d89b41146105dc578063a9059cbb146105e457600080fd5b80637ecebe00116101975780637ecebe001461058e57806386ee6b93146105ae5780638da5cb5b146105b857600080fd5b8063715018a61461056a5780637d882097146105725780637e0466341461057b57600080fd5b806323b872dd1161028c578063402d267d116102355780634f17a2fa1161020f5780634f17a2fa146105255780635aaab8ce1461052f5780636e553f651461053757806370a082311461054a57600080fd5b8063402d267d146104ec57806345755dd6146104ff5780634cdad5061461051257600080fd5b8063354d594b11610266578063354d594b146104b45780633644e515146104bd57806338d52e0f146104c557600080fd5b806323b872dd14610455578063268ef95414610468578063313ce5671461047b57600080fd5b80630c424284116102ee5780631758078b116102c85780631758078b1461040057806318160ddd1461043f5780631f2698ab1461044857600080fd5b80630c424284146103d3578063103d113f146103e657806313b53153146103f857600080fd5b806307a2d13a1161031f57806307a2d13a1461038a578063095ea7b31461039d5780630a28a477146103c057600080fd5b8062fed9021461034557806301e1d1141461035a57806306fdde0314610375575b600080fd5b6103586103533660046126ba565b6107a6565b005b6103626107ef565b6040519081526020015b60405180910390f35b61037d6108ae565b60405161036c91906126d3565b6103626103983660046126ba565b61093c565b6103b06103ab366004612744565b610969565b604051901515815260200161036c565b6103626103ce3660046126ba565b6109d6565b6103586103e136600461277e565b6109f4565b6009546103b090610100900460ff1681565b6103b0610a0a565b6104277f000000000000000000000000000000000000000000000000000000000000000081565b6040516001600160a01b03909116815260200161036c565b61036260025481565b6009546103b09060ff1681565b6103b06104633660046127b1565b610a47565b6103586104763660046127ed565b610b39565b6104a27f000000000000000000000000000000000000000000000000000000000000000081565b60405160ff909116815260200161036c565b610362600b5481565b610362610d7a565b6104277f000000000000000000000000000000000000000000000000000000000000000081565b6103626104fa366004612819565b610dd0565b61035861050d3660046126ba565b610e13565b6103626105203660046126ba565b61101b565b61036262278d0081565b6103b0611039565b610362610545366004612834565b611073565b610362610558366004612819565b60036020526000908152604090205481565b6103586111f4565b610362600c5481565b6103586105893660046128a3565b611208565b61036261059c366004612819565b60056020526000908152604090205481565b6103626202a30081565b6006546001600160a01b0316610427565b6103626105d7366004612834565b6112db565b61037d611454565b6103b06105f2366004612744565b611461565b6103626106053660046126ba565b6114d9565b61036261061836600461290f565b6114f7565b61036261160a565b61036261063336600461290f565b611615565b61064061171f565b604080518251815260208084015190820152918101519082015260600161036c565b610362610670366004612819565b61178c565b6106a46106833660046126ba565b60076020526000908152604090208054600182015460029092015490919083565b6040805193845260208401929092529082015260600161036c565b6103626106cd3660046126ba565b61179a565b6103626106e0366004612819565b6117ba565b6103586106f336600461294b565b6117dc565b610362610706366004612819565b6001600160a01b031660009081526003602052604090205490565b6103b061072f366004612819565b600d6020526000908152604090205460ff1681565b610362600a5481565b61036261075b3660046129be565b600460209081526000928352604080842090915290825290205481565b6103626107863660046126ba565b611a4a565b610358610799366004612819565b611a68565b610358611af8565b6107ae611d52565b600b5460408051918252602082018390527fd026c0acfe6cb0f0c80c55b5d91a908394572c2a440fe841386448dc9c16ea77910160405180910390a1600b55565b600954600090610100900460ff166108a7576040517f70a082310000000000000000000000000000000000000000000000000000000081523060048201527f00000000000000000000000000000000000000000000000000000000000000006001600160a01b0316906370a0823190602401602060405180830381865afa15801561087e573d6000803e3d6000fd5b505050506040513d601f19601f820116820180604052508101906108a291906129e8565b905090565b50600a5490565b600080546108bb90612a01565b80601f01602080910402602001604051908101604052809291908181526020018280546108e790612a01565b80156109345780601f1061090957610100808354040283529160200191610934565b820191906000526020600020905b81548152906001019060200180831161091757829003601f168201915b505050505081565b60025460009080156109605761095b6109536107ef565b849083611dac565b610962565b825b9392505050565b3360008181526004602090815260408083206001600160a01b038716808552925280832085905551919290917f8c5be1e5ebec7d5bd14f71427d1e84f3dd0314c0f7b2291e5b200ac8c7c3b925906109c49086815260200190565b60405180910390a35060015b92915050565b60006109e0611dcb565b6109eb5760006109d0565b6109d082611e1c565b6109fc611d52565b610a068282611e3c565b5050565b60008060076000610a1a60085490565b8152602001908152602001600020905080600001544210158015610a415750806001015442105b91505090565b6001600160a01b03831660009081526004602090815260408083203384529091528120546000198114610aa357610a7e8382612a51565b6001600160a01b03861660009081526004602090815260408083203384529091529020555b6001600160a01b03851660009081526003602052604081208054859290610acb908490612a51565b90915550506001600160a01b03808516600081815260036020526040908190208054870190555190918716907fddf252ad1be2c89b69c2b068fc378daa952ba7f163c4a11628f55a4df523b3ef90610b269087815260200190565b60405180910390a3506001949350505050565b610b41611d52565b600060076000610b5060085490565b815260200190815260200160002090508060010154421080610b76575080600201544210155b610bb05760405162461bcd60e51b8152602060048201526006602482015265647572696e6760d01b60448201526064015b60405180910390fd5b60095460ff161580610bca5750600954610100900460ff16155b610c165760405162461bcd60e51b815260206004820152600860248201527f21616c6c6f7765640000000000000000000000000000000000000000000000006044820152606401610ba7565b8282118015610c315750610c2d6202a30085612a68565b8310155b8015610c3d5750428410155b610c895760405162461bcd60e51b815260206004820152600760248201527f2174696d696e67000000000000000000000000000000000000000000000000006044820152606401610ba7565b610c9662278d0084612a68565b821115610ce55760405162461bcd60e51b815260206004820152600960248201527f2165706f63684c656e00000000000000000000000000000000000000000000006044820152606401610ba7565b610cf3600880546001019055565b6000610cfd61160a565b6000818152600760209081526040918290208881556001808201899055600282018890556009805460ff1916909117905582518981529182018890529181018690529192509082907ffc6c725a951b30501cae57e21f8ee2c863bc9eb91a4fc9bc85ef4f4e07b861e19060600160405180910390a2505050505050565b60007f00000000000000000000000000000000000000000000000000000000000000004614610dab576108a2611e94565b507f000000000000000000000000000000000000000000000000000000000000000090565b600954600090610100900460ff1615610deb57506000919050565b600b54600c5411610e0b57600c54600b54610e069190612a51565b6109d0565b600092915050565b336001600160a01b037f00000000000000000000000000000000000000000000000000000000000000001614610e8b5760405162461bcd60e51b815260206004820152600760248201527f21747261646572000000000000000000000000000000000000000000000000006044820152606401610ba7565b600954610100900460ff16610ee25760405162461bcd60e51b815260206004820152600860248201527f21637573746f64790000000000000000000000000000000000000000000000006044820152606401610ba7565b60008111610f325760405162461bcd60e51b815260206004820152600760248201527f21616d6f756e74000000000000000000000000000000000000000000000000006044820152606401610ba7565b610f876001600160a01b037f0000000000000000000000000000000000000000000000000000000000000000167f00000000000000000000000000000000000000000000000000000000000000003084611f2e565b6000610f9161160a565b6000818152600760205260408120426002820155600a91909155600980547fffffffffffffffffffffffffffffffffffffffffffffffffffffffffffff0000169055909150610fde6107ef565b600c5560405183815282907fe5e9cfeede9ff1fc77b415bf8346e29706d16794b3bdeca347ac54a7fd3e0c3c9060200160405180910390a2505050565b6000611025611dcb565b6110305760006109d0565b6109d082611fda565b6000806007600061104960085490565b8152602001908152602001600020905080600101544210158015610a415750600201544210919050565b600954600090610100900460ff16156110ba5760405162461bcd60e51b815260206004820152600960248201526818dd5cdd1bd91a595960ba1b6044820152606401610ba7565b6000600760006110c960085490565b81526020019081526020016000209050806000015442101580156110f05750806001015442105b61113c5760405162461bcd60e51b815260206004820152600860248201527f2166756e64696e670000000000000000000000000000000000000000000000006044820152606401610ba7565b336000908152600d602052604090205460ff1661118a5760405162461bcd60e51b815260206004820152600c60248201526b085dda1a5d195b1a5cdd195960a21b6044820152606401610ba7565b61119383610dd0565b8411156111e25760405162461bcd60e51b815260206004820152600b60248201527f216d61784465706f7369740000000000000000000000000000000000000000006044820152606401610ba7565b6111ec8484611fe5565b949350505050565b6111fc611d52565b61120660006120d1565b565b611210611d52565b828181146112625760405162461bcd60e51b8152600401610ba79060208082526004908201527f216c656e00000000000000000000000000000000000000000000000000000000604082015260600190565b60005b818110156112d3576112c386868381811061128257611282612a80565b90506020020160208101906112979190612819565b8585848181106112a9576112a9612a80565b90506020020160208101906112be9190612a96565b611e3c565b6112cc81612ab1565b9050611265565b505050505050565b600954600090610100900460ff16156113225760405162461bcd60e51b815260206004820152600960248201526818dd5cdd1bd91a595960ba1b6044820152606401610ba7565b60006007600061133160085490565b81526020019081526020016000209050806000015442101580156113585750806001015442105b6113a45760405162461bcd60e51b815260206004820152600860248201527f2166756e64696e670000000000000000000000000000000000000000000000006044820152606401610ba7565b336000908152600d602052604090205460ff166113f25760405162461bcd60e51b815260206004820152600c60248201526b085dda1a5d195b1a5cdd195960a21b6044820152606401610ba7565b6113fb8361178c565b84111561144a5760405162461bcd60e51b815260206004820152600860248201527f216d61784d696e740000000000000000000000000000000000000000000000006044820152606401610ba7565b6111ec848461213b565b600180546108bb90612a01565b33600090815260036020526040812080548391908390611482908490612a51565b90915550506001600160a01b038316600081815260036020526040908190208054850190555133907fddf252ad1be2c89b69c2b068fc378daa952ba7f163c4a11628f55a4df523b3ef906109c49086815260200190565b60006114e36121d7565b6114ee5760006109d0565b6109d082612226565b600954600090610100900460ff161561153e5760405162461bcd60e51b815260206004820152600960248201526818dd5cdd1bd91a595960ba1b6044820152606401610ba7565b60006007600061154d60085490565b815260200190815260200160002090508060010154421080611573575080600201544210155b6115a85760405162461bcd60e51b8152602060048201526006602482015265647572696e6760d01b6044820152606401610ba7565b336000908152600d602052604090205460ff166115f65760405162461bcd60e51b815260206004820152600c60248201526b085dda1a5d195b1a5cdd195960a21b6044820152606401610ba7565b611601858585612245565b95945050505050565b60006108a260085490565b600954600090610100900460ff161561165c5760405162461bcd60e51b815260206004820152600960248201526818dd5cdd1bd91a595960ba1b6044820152606401610ba7565b60006007600061166b60085490565b815260200190815260200160002090508060010154421080611691575080600201544210155b6116c65760405162461bcd60e51b8152602060048201526006602482015265647572696e6760d01b6044820152606401610ba7565b336000908152600d602052604090205460ff166117145760405162461bcd60e51b815260206004820152600c60248201526b085dda1a5d195b1a5cdd195960a21b6044820152606401610ba7565b611601858585612353565b61174360405180606001604052806000815260200160008152602001600081525090565b6007600061175060085490565b81526020019081526020016000206040518060600160405290816000820154815260200160018201548152602001600282015481525050905090565b60006109d06106cd33610dd0565b60025460009080156109605761095b816117b26107ef565b859190611dac565b6001600160a01b0381166000908152600360205260408120546109d09061093c565b4284101561182c5760405162461bcd60e51b815260206004820152601760248201527f5045524d49545f444541444c494e455f455850495245440000000000000000006044820152606401610ba7565b60006001611838610d7a565b6001600160a01b038a811660008181526005602090815260409182902080546001810190915582517f6e71edae12b1b97f4d1f60370fef10105fa2faae0126114a169c64845d6126c98184015280840194909452938d166060840152608083018c905260a083019390935260c08083018b90528151808403909101815260e0830190915280519201919091207f19010000000000000000000000000000000000000000000000000000000000006101008301526101028201929092526101228101919091526101420160408051601f198184030181528282528051602091820120600084529083018083525260ff871690820152606081018590526080810184905260a0016020604051602081039080840390855afa15801561195f573d6000803e3d6000fd5b5050604051601f1901519150506001600160a01b038116158015906119955750876001600160a01b0316816001600160a01b0316145b6119e15760405162461bcd60e51b815260206004820152600e60248201527f494e56414c49445f5349474e45520000000000000000000000000000000000006044820152606401610ba7565b6001600160a01b0390811660009081526004602090815260408083208a8516808552908352928190208990555188815291928a16917f8c5be1e5ebec7d5bd14f71427d1e84f3dd0314c0f7b2291e5b200ac8c7c3b925910160405180910390a350505050505050565b6000611a546121d7565b611a5f5760006109d0565b6109d0826124b1565b611a70611d52565b6001600160a01b038116611aec5760405162461bcd60e51b815260206004820152602660248201527f4f776e61626c653a206e6577206f776e657220697320746865207a65726f206160448201527f64647265737300000000000000000000000000000000000000000000000000006064820152608401610ba7565b611af5816120d1565b50565b336001600160a01b037f00000000000000000000000000000000000000000000000000000000000000001614611b705760405162461bcd60e51b815260206004820152600760248201527f21747261646572000000000000000000000000000000000000000000000000006044820152606401610ba7565b600954610100900460ff1615611bb45760405162461bcd60e51b815260206004820152600960248201526818dd5cdd1bd91a595960ba1b6044820152606401610ba7565b600060076000611bc360085490565b8152602001908152602001600020905080600101544210158015611bea5750806002015442105b611c365760405162461bcd60e51b815260206004820152600760248201527f21647572696e67000000000000000000000000000000000000000000000000006044820152606401610ba7565b6000611c406107ef565b905060008111611c925760405162461bcd60e51b815260206004820152600760248201527f21616d6f756e74000000000000000000000000000000000000000000000000006044820152606401610ba7565b600980547fffffffffffffffffffffffffffffffffffffffffffffffffffffffffffff00ff16610100179055600a819055611d176001600160a01b037f0000000000000000000000000000000000000000000000000000000000000000167f0000000000000000000000000000000000000000000000000000000000000000836124bc565b6008546040518281527f69e193dd4c77613d0e599740c9e2cd88fb7b4a9d11ef9b1f6226d392c941f471906020015b60405180910390a25050565b6006546001600160a01b031633146112065760405162461bcd60e51b815260206004820181905260248201527f4f776e61626c653a2063616c6c6572206973206e6f7420746865206f776e65726044820152606401610ba7565b828202811515841585830485141716611dc457600080fd5b0492915050565b60008060076000611ddb60085490565b81526020019081526020016000209050600960019054906101000a900460ff16158015610a4157508060010154421080610a41575060020154421015919050565b60025460009080156109605761095b81611e346107ef565b859190612561565b6001600160a01b0382166000818152600d6020908152604091829020805460ff191685151590811790915591519182527ff8ccc4383c96e7994507db23f575d09dee79c80d522b953dbb53c3c9a3f970d39101611d46565b60007f8b73c3c69bb8fe3d512ecc4cf759cc79239f7b179b0ffacaa9a75d522b39400f6000604051611ec69190612acb565b6040805191829003822060208301939093528101919091527fc89efdaa54c0f20c7adf612882df0950f5a951637e0307cdcb4c672f298b8bc660608201524660808201523060a082015260c00160405160208183030381529060405280519060200120905090565b60006040517f23b872dd0000000000000000000000000000000000000000000000000000000081528460048201528360248201528260448201526020600060648360008a5af13d15601f3d1160016000511416171691505080611fd35760405162461bcd60e51b815260206004820152601460248201527f5452414e534645525f46524f4d5f4641494c45440000000000000000000000006044820152606401610ba7565b5050505050565b60006109d08261093c565b6000611ff083611a4a565b9050806000036120425760405162461bcd60e51b815260206004820152600b60248201527f5a45524f5f5348415245530000000000000000000000000000000000000000006044820152606401610ba7565b6120776001600160a01b037f000000000000000000000000000000000000000000000000000000000000000016333086611f2e565b612081828261258f565b60408051848152602081018390526001600160a01b0384169133917fdcbc1c05240f31ff3ad067ef1ee35ce4997762752e3a095284754544f4c709d7910160405180910390a36109d083826125fb565b600680546001600160a01b038381167fffffffffffffffffffffffff0000000000000000000000000000000000000000831681179093556040519116919082907f8be0079c531659141344cd1fd0a4f28419497f9722a3daafe3b4186f6b6457e090600090a35050565b6000612146836114d9565b905061217d6001600160a01b037f000000000000000000000000000000000000000000000000000000000000000016333084611f2e565b612187828461258f565b60408051828152602081018590526001600160a01b0384169133917fdcbc1c05240f31ff3ad067ef1ee35ce4997762752e3a095284754544f4c709d7910160405180910390a36109d081846125fb565b600080600760006121e760085490565b81526020019081526020016000209050600960019054906101000a900460ff16158015610a41575080544210801590610a415750600101544210919050565b60025460009080156109605761095b61223d6107ef565b849083612561565b6000612250846109d6565b9050336001600160a01b038316146122c0576001600160a01b038216600090815260046020908152604080832033845290915290205460001981146122be576122998282612a51565b6001600160a01b03841660009081526004602090815260408083203384529091529020555b505b6122ca8482612616565b6122d48282612646565b60408051858152602081018390526001600160a01b03808516929086169133917ffbde797d201c681b91056529119e0b02407c7bb96a4a2c75c01fc9667232c8db910160405180910390a46109626001600160a01b037f00000000000000000000000000000000000000000000000000000000000000001684866124bc565b6000336001600160a01b038316146123c3576001600160a01b038216600090815260046020908152604080832033845290915290205460001981146123c15761239c8582612a51565b6001600160a01b03841660009081526004602090815260408083203384529091529020555b505b6123cc8461101b565b90508060000361241e5760405162461bcd60e51b815260206004820152600b60248201527f5a45524f5f4153534554530000000000000000000000000000000000000000006044820152606401610ba7565b6124288185612616565b6124328285612646565b60408051828152602081018690526001600160a01b03808516929086169133917ffbde797d201c681b91056529119e0b02407c7bb96a4a2c75c01fc9667232c8db910160405180910390a46109626001600160a01b037f00000000000000000000000000000000000000000000000000000000000000001684836124bc565b60006109d08261179a565b60006040517fa9059cbb000000000000000000000000000000000000000000000000000000008152836004820152826024820152602060006044836000895af13d15601f3d116001600051141617169150508061255b5760405162461bcd60e51b815260206004820152600f60248201527f5452414e534645525f4641494c454400000000000000000000000000000000006044820152606401610ba7565b50505050565b82820281151584158583048514171661257957600080fd5b6001826001830304018115150290509392505050565b80600260008282546125a19190612a68565b90915550506001600160a01b0382166000818152600360209081526040808320805486019055518481527fddf252ad1be2c89b69c2b068fc378daa952ba7f163c4a11628f55a4df523b3ef91015b60405180910390a35050565b81600c600082825461260d9190612a68565b90915550505050565b81600c54111561263d5781600c60008282546126329190612a51565b90915550610a069050565b6000600c555050565b6001600160a01b0382166000908152600360205260408120805483929061266e908490612a51565b90915550506002805482900390556040518181526000906001600160a01b038416907fddf252ad1be2c89b69c2b068fc378daa952ba7f163c4a11628f55a4df523b3ef906020016125ef565b6000602082840312156126cc57600080fd5b5035919050565b600060208083528351808285015260005b81811015612700578581018301518582016040015282016126e4565b81811115612712576000604083870101525b50601f01601f1916929092016040019392505050565b80356001600160a01b038116811461273f57600080fd5b919050565b6000806040838503121561275757600080fd5b61276083612728565b946020939093013593505050565b8035801515811461273f57600080fd5b6000806040838503121561279157600080fd5b61279a83612728565b91506127a86020840161276e565b90509250929050565b6000806000606084860312156127c657600080fd5b6127cf84612728565b92506127dd60208501612728565b9150604084013590509250925092565b60008060006060848603121561280257600080fd5b505081359360208301359350604090920135919050565b60006020828403121561282b57600080fd5b61096282612728565b6000806040838503121561284757600080fd5b823591506127a860208401612728565b60008083601f84011261286957600080fd5b50813567ffffffffffffffff81111561288157600080fd5b6020830191508360208260051b850101111561289c57600080fd5b9250929050565b600080600080604085870312156128b957600080fd5b843567ffffffffffffffff808211156128d157600080fd5b6128dd88838901612857565b909650945060208701359150808211156128f657600080fd5b5061290387828801612857565b95989497509550505050565b60008060006060848603121561292457600080fd5b8335925061293460208501612728565b915061294260408501612728565b90509250925092565b600080600080600080600060e0888a03121561296657600080fd5b61296f88612728565b965061297d60208901612728565b95506040880135945060608801359350608088013560ff811681146129a157600080fd5b9699959850939692959460a0840135945060c09093013592915050565b600080604083850312156129d157600080fd5b6129da83612728565b91506127a860208401612728565b6000602082840312156129fa57600080fd5b5051919050565b600181811c90821680612a1557607f821691505b602082108103612a3557634e487b7160e01b600052602260045260246000fd5b50919050565b634e487b7160e01b600052601160045260246000fd5b600082821015612a6357612a63612a3b565b500390565b60008219821115612a7b57612a7b612a3b565b500190565b634e487b7160e01b600052603260045260246000fd5b600060208284031215612aa857600080fd5b6109628261276e565b60006000198203612ac457612ac4612a3b565b5060010190565b600080835481600182811c915080831680612ae757607f831692505b60208084108203612b0657634e487b7160e01b86526022600452602486fd5b818015612b1a5760018114612b2b57612b58565b60ff19861689528489019650612b58565b60008a81526020902060005b86811015612b505781548b820152908501908301612b37565b505084890196505b50949897505050505050505056fea264697066735822122042960cf7e11f67561e152ea49986b4398413ad40fb080411fda095593478b1c864736f6c634300080d0033",
  "linkReferences": {},
  "deployedLinkReferences": {}
}